{
    "_format": "hh-sol-artifact-1",
    "contractName": "ThreeRandomWordsNFT",
    "sourceName": "contracts/ThreeRandomWordsNFT.sol",
    "abi": [
        {
            "inputs": [],
            "stateMutability": "nonpayable",
            "type": "constructor"
        },
        {
            "anonymous": false,
            "inputs": [
                {
                    "indexed": true,
                    "internalType": "address",
                    "name": "owner",
                    "type": "address"
                },
                {
                    "indexed": true,
                    "internalType": "address",
                    "name": "approved",
                    "type": "address"
                },
                {
                    "indexed": true,
                    "internalType": "uint256",
                    "name": "tokenId",
                    "type": "uint256"
                }
            ],
            "name": "Approval",
            "type": "event"
        },
        {
            "anonymous": false,
            "inputs": [
                {
                    "indexed": true,
                    "internalType": "address",
                    "name": "owner",
                    "type": "address"
                },
                {
                    "indexed": true,
                    "internalType": "address",
                    "name": "operator",
                    "type": "address"
                },
                {
                    "indexed": false,
                    "internalType": "bool",
                    "name": "approved",
                    "type": "bool"
                }
            ],
            "name": "ApprovalForAll",
            "type": "event"
        },
        {
            "anonymous": false,
            "inputs": [
                {
                    "indexed": false,
                    "internalType": "address",
                    "name": "sender",
                    "type": "address"
                },
                {
                    "indexed": false,
                    "internalType": "uint256",
                    "name": "tokenId",
                    "type": "uint256"
                }
            ],
            "name": "NewThreeRandomWordNFTMinted",
            "type": "event"
        },
        {
            "anonymous": false,
            "inputs": [
                {
                    "indexed": true,
                    "internalType": "address",
                    "name": "from",
                    "type": "address"
                },
                {
                    "indexed": true,
                    "internalType": "address",
                    "name": "to",
                    "type": "address"
                },
                {
                    "indexed": true,
                    "internalType": "uint256",
                    "name": "tokenId",
                    "type": "uint256"
                }
            ],
            "name": "Transfer",
            "type": "event"
        },
        {
            "inputs": [
                {
                    "internalType": "address",
                    "name": "to",
                    "type": "address"
                },
                {
                    "internalType": "uint256",
                    "name": "tokenId",
                    "type": "uint256"
                }
            ],
            "name": "approve",
            "outputs": [],
            "stateMutability": "nonpayable",
            "type": "function"
        },
        {
            "inputs": [
                {
                    "internalType": "address",
                    "name": "owner",
                    "type": "address"
                }
            ],
            "name": "balanceOf",
            "outputs": [
                {
                    "internalType": "uint256",
                    "name": "",
                    "type": "uint256"
                }
            ],
            "stateMutability": "view",
            "type": "function"
        },
        {
            "inputs": [
                {
                    "internalType": "uint256",
                    "name": "tokenId",
                    "type": "uint256"
                }
            ],
            "name": "getApproved",
            "outputs": [
                {
                    "internalType": "address",
                    "name": "",
                    "type": "address"
                }
            ],
            "stateMutability": "view",
            "type": "function"
        },
        {
            "inputs": [
                {
                    "internalType": "address",
                    "name": "owner",
                    "type": "address"
                },
                {
                    "internalType": "address",
                    "name": "operator",
                    "type": "address"
                }
            ],
            "name": "isApprovedForAll",
            "outputs": [
                {
                    "internalType": "bool",
                    "name": "",
                    "type": "bool"
                }
            ],
            "stateMutability": "view",
            "type": "function"
        },
        {
            "inputs": [],
            "name": "makeAnNFT",
            "outputs": [],
            "stateMutability": "nonpayable",
            "type": "function"
        },
        {
            "inputs": [],
            "name": "name",
            "outputs": [
                {
                    "internalType": "string",
                    "name": "",
                    "type": "string"
                }
            ],
            "stateMutability": "view",
            "type": "function"
        },
        {
            "inputs": [
                {
                    "internalType": "uint256",
                    "name": "tokenId",
                    "type": "uint256"
                }
            ],
            "name": "ownerOf",
            "outputs": [
                {
                    "internalType": "address",
                    "name": "",
                    "type": "address"
                }
            ],
            "stateMutability": "view",
            "type": "function"
        },
        {
            "inputs": [
                {
                    "internalType": "uint256",
                    "name": "tokenId",
                    "type": "uint256"
                }
            ],
            "name": "pickRandomColor",
            "outputs": [
                {
                    "internalType": "string",
                    "name": "",
                    "type": "string"
                }
            ],
            "stateMutability": "view",
            "type": "function"
        },
        {
            "inputs": [
                {
                    "internalType": "uint256",
                    "name": "tokenId",
                    "type": "uint256"
                }
            ],
            "name": "pickRandomFirstWord",
            "outputs": [
                {
                    "internalType": "string",
                    "name": "",
                    "type": "string"
                }
            ],
            "stateMutability": "view",
            "type": "function"
        },
        {
            "inputs": [
                {
                    "internalType": "uint256",
                    "name": "tokenId",
                    "type": "uint256"
                }
            ],
            "name": "pickRandomSecondWord",
            "outputs": [
                {
                    "internalType": "string",
                    "name": "",
                    "type": "string"
                }
            ],
            "stateMutability": "view",
            "type": "function"
        },
        {
            "inputs": [
                {
                    "internalType": "uint256",
                    "name": "tokenId",
                    "type": "uint256"
                }
            ],
            "name": "pickRandomThirdWord",
            "outputs": [
                {
                    "internalType": "string",
                    "name": "",
                    "type": "string"
                }
            ],
            "stateMutability": "view",
            "type": "function"
        },
        {
            "inputs": [
                {
                    "internalType": "address",
                    "name": "from",
                    "type": "address"
                },
                {
                    "internalType": "address",
                    "name": "to",
                    "type": "address"
                },
                {
                    "internalType": "uint256",
                    "name": "tokenId",
                    "type": "uint256"
                }
            ],
            "name": "safeTransferFrom",
            "outputs": [],
            "stateMutability": "nonpayable",
            "type": "function"
        },
        {
            "inputs": [
                {
                    "internalType": "address",
                    "name": "from",
                    "type": "address"
                },
                {
                    "internalType": "address",
                    "name": "to",
                    "type": "address"
                },
                {
                    "internalType": "uint256",
                    "name": "tokenId",
                    "type": "uint256"
                },
                {
                    "internalType": "bytes",
                    "name": "_data",
                    "type": "bytes"
                }
            ],
            "name": "safeTransferFrom",
            "outputs": [],
            "stateMutability": "nonpayable",
            "type": "function"
        },
        {
            "inputs": [
                {
                    "internalType": "address",
                    "name": "operator",
                    "type": "address"
                },
                {
                    "internalType": "bool",
                    "name": "approved",
                    "type": "bool"
                }
            ],
            "name": "setApprovalForAll",
            "outputs": [],
            "stateMutability": "nonpayable",
            "type": "function"
        },
        {
            "inputs": [
                {
                    "internalType": "bytes4",
                    "name": "interfaceId",
                    "type": "bytes4"
                }
            ],
            "name": "supportsInterface",
            "outputs": [
                {
                    "internalType": "bool",
                    "name": "",
                    "type": "bool"
                }
            ],
            "stateMutability": "view",
            "type": "function"
        },
        {
            "inputs": [],
            "name": "symbol",
            "outputs": [
                {
                    "internalType": "string",
                    "name": "",
                    "type": "string"
                }
            ],
            "stateMutability": "view",
            "type": "function"
        },
        {
            "inputs": [
                {
                    "internalType": "uint256",
                    "name": "tokenId",
                    "type": "uint256"
                }
            ],
            "name": "tokenURI",
            "outputs": [
                {
                    "internalType": "string",
                    "name": "",
                    "type": "string"
                }
            ],
            "stateMutability": "view",
            "type": "function"
        },
        {
            "inputs": [
                {
                    "internalType": "address",
                    "name": "from",
                    "type": "address"
                },
                {
                    "internalType": "address",
                    "name": "to",
                    "type": "address"
                },
                {
                    "internalType": "uint256",
                    "name": "tokenId",
                    "type": "uint256"
                }
            ],
            "name": "transferFrom",
            "outputs": [],
            "stateMutability": "nonpayable",
            "type": "function"
        }
    ],
    "bytecode": "0x608060405260405180610100016040528060d3815260200162005a8e60d39139600890805190602001906200003692919062001cc3565b5060405180608001604052806057815260200162005b6160579139600990805190602001906200006892919062001cc3565b506040518061040001604052806040518060400160405280600881526020017f446f6d696e616e7400000000000000000000000000000000000000000000000081525081526020016040518060400160405280600a81526020017f5375626d6973736976650000000000000000000000000000000000000000000081525081526020016040518060400160405280600781526020017f4261726b696e670000000000000000000000000000000000000000000000000081525081526020016040518060400160405280600681526020017f536176616765000000000000000000000000000000000000000000000000000081525081526020016040518060400160405280600881526020017f436f6e7374616e7400000000000000000000000000000000000000000000000081525081526020016040518060400160405280600781526020017f44796e616d69630000000000000000000000000000000000000000000000000081525081526020016040518060400160405280600b81526020017f53757065726c617469766500000000000000000000000000000000000000000081525081526020016040518060400160405280600881526020017f416e696d6174656400000000000000000000000000000000000000000000000081525081526020016040518060400160405280600b81526020017f486f6c6f6772617068696300000000000000000000000000000000000000000081525081526020016040518060400160405280600681526020017f4379626f7267000000000000000000000000000000000000000000000000000081525081526020016040518060400160405280600681526020017f4368726f6d65000000000000000000000000000000000000000000000000000081525081526020016040518060400160405280600781526020017f5261696e626f770000000000000000000000000000000000000000000000000081525081526020016040518060400160405280600b81526020017f4578747261766167616e7400000000000000000000000000000000000000000081525081526020016040518060400160405280600b81526020017f4e6f6e73656e736963616c00000000000000000000000000000000000000000081525081526020016040518060400160405280600981526020017f4d696e696174757265000000000000000000000000000000000000000000000081525081526020016040518060400160405280600981526020017f446566656374697665000000000000000000000000000000000000000000000081525081526020016040518060400160405280600781526020017f41646f707465640000000000000000000000000000000000000000000000000081525081526020016040518060400160405280600781526020017f426f74746c65640000000000000000000000000000000000000000000000000081525081526020016040518060400160405280600781526020017f53757072656d650000000000000000000000000000000000000000000000000081525081526020016040518060400160405280600b81526020017f44696c617069746174656400000000000000000000000000000000000000000081525081526020016040518060400160405280600481526020017f526172650000000000000000000000000000000000000000000000000000000081525081526020016040518060400160405280600881526020017f556c74696d61746500000000000000000000000000000000000000000000000081525081526020016040518060400160405280600681526020017f476f6c64656e000000000000000000000000000000000000000000000000000081525081526020016040518060400160405280600681526020017f556e64656164000000000000000000000000000000000000000000000000000081525081526020016040518060400160405280600781526020017f4477617276656e0000000000000000000000000000000000000000000000000081525081526020016040518060400160405280600681526020017f456c6576656e000000000000000000000000000000000000000000000000000081525081526020016040518060400160405280600b81526020017f4d6963726f73636f70696300000000000000000000000000000000000000000081525081526020016040518060400160405280600781526020017f47656e657469630000000000000000000000000000000000000000000000000081525081526020016040518060400160405280600c81526020017f53757065726e61747572616c000000000000000000000000000000000000000081525081526020016040518060400160405280600981526020017f4c75787572696f7573000000000000000000000000000000000000000000000081525081526020016040518060400160405280600881526020017f4c61756768696e6700000000000000000000000000000000000000000000000081525081526020016040518060400160405280600681526020017f437279696e670000000000000000000000000000000000000000000000000000815250815250600a906020620007e592919062001d54565b50604051806103c001604052806040518060400160405280600981526020017f4a656c6c7966697368000000000000000000000000000000000000000000000081525081526020016040518060400160405280600681526020017f4d756666696e000000000000000000000000000000000000000000000000000081525081526020016040518060400160405280600781526020017f436865646461720000000000000000000000000000000000000000000000000081525081526020016040518060400160405280600681526020017f416c70616361000000000000000000000000000000000000000000000000000081525081526020016040518060400160405280600881526020017f43616e6e6162697300000000000000000000000000000000000000000000000081525081526020016040518060400160405280600881526020017f4d61636b6572656c00000000000000000000000000000000000000000000000081525081526020016040518060400160405280600881526020017f5370616e6b696e6700000000000000000000000000000000000000000000000081525081526020016040518060400160405280600781526020017f4d616e617465650000000000000000000000000000000000000000000000000081525081526020016040518060400160405280600681526020017f5a6f6d626965000000000000000000000000000000000000000000000000000081525081526020016040518060400160405280600781526020017f4f7374726963680000000000000000000000000000000000000000000000000081525081526020016040518060400160405280600a81526020017f466c7567656c686f726e0000000000000000000000000000000000000000000081525081526020016040518060400160405280600781526020017f546f726e61646f0000000000000000000000000000000000000000000000000081525081526020016040518060400160405280600481526020017f596f596f0000000000000000000000000000000000000000000000000000000081525081526020016040518060400160405280600881526020017f41726163686e696400000000000000000000000000000000000000000000000081525081526020016040518060400160405280600881526020017f4c6f6c6c69706f7000000000000000000000000000000000000000000000000081525081526020016040518060400160405280600781526020017f4469616d6f6e640000000000000000000000000000000000000000000000000081525081526020016040518060400160405280600481526020017f527562790000000000000000000000000000000000000000000000000000000081525081526020016040518060400160405280600781526020017f456d6572616c640000000000000000000000000000000000000000000000000081525081526020016040518060400160405280600881526020017f536170706869726500000000000000000000000000000000000000000000000081525081526020016040518060400160405280600881526020017f416d65746879737400000000000000000000000000000000000000000000000081525081526020016040518060400160405280600581526020017f506561726c00000000000000000000000000000000000000000000000000000081525081526020016040518060400160405280600381526020017f4f616b000000000000000000000000000000000000000000000000000000000081525081526020016040518060400160405280600881526020017f4d61686f67616e7900000000000000000000000000000000000000000000000081525081526020016040518060400160405280600581526020017f4d61706c6500000000000000000000000000000000000000000000000000000081525081526020016040518060400160405280600581526020017f436564617200000000000000000000000000000000000000000000000000000081525081526020016040518060400160405280600881526020017f416c756d696e756d00000000000000000000000000000000000000000000000081525081526020016040518060400160405280600681526020017f436f70706572000000000000000000000000000000000000000000000000000081525081526020016040518060400160405280600681526020017f4d6172626c65000000000000000000000000000000000000000000000000000081525081526020016040518060400160405280600881526020017f546974616e69756d00000000000000000000000000000000000000000000000081525081526020016040518060400160405280600881526020017f506c6174696e756d000000000000000000000000000000000000000000000000815250815250600b90601e62000eec92919062001dbb565b50604051806104c001604052806040518060400160405280600981526020017f576869737065726572000000000000000000000000000000000000000000000081525081526020016040518060400160405280600781526020017f536176696f75720000000000000000000000000000000000000000000000000081525081526020016040518060400160405280600781526020017f506c756d6265720000000000000000000000000000000000000000000000000081525081526020016040518060400160405280600881526020017f5772616e676c657200000000000000000000000000000000000000000000000081525081526020016040518060400160405280600881526020017f5365726765616e7400000000000000000000000000000000000000000000000081525081526020016040518060400160405280600581526020017f526964657200000000000000000000000000000000000000000000000000000081525081526020016040518060400160405280600781526020017f4d616368696e650000000000000000000000000000000000000000000000000081525081526020016040518060400160405280600781526020017f476f64646573730000000000000000000000000000000000000000000000000081525081526020016040518060400160405280600781526020017f486f73746167650000000000000000000000000000000000000000000000000081525081526020016040518060400160405280600981526020017f566f6c756e74656572000000000000000000000000000000000000000000000081525081526020016040518060400160405280600981526020017f446574656374697665000000000000000000000000000000000000000000000081525081526020016040518060400160405280600881526020017f52656c617469766500000000000000000000000000000000000000000000000081525081526020016040518060400160405280600481526020017f5477696e0000000000000000000000000000000000000000000000000000000081525081526020016040518060400160405280600781526020017f547269706c65740000000000000000000000000000000000000000000000000081525081526020016040518060400160405280600681526020017f436f7573696e000000000000000000000000000000000000000000000000000081525081526020016040518060400160405280600681526020017f476f626c696e000000000000000000000000000000000000000000000000000081525081526020016040518060400160405280600681526020017f46696e616c65000000000000000000000000000000000000000000000000000081525081526020016040518060400160405280600981526020017f446566656e64616e74000000000000000000000000000000000000000000000081525081526020016040518060400160405280600a81526020017f50726f73656375746f720000000000000000000000000000000000000000000081525081526020016040518060400160405280600881526020017f4578656375746f7200000000000000000000000000000000000000000000000081525081526020016040518060400160405280600381526020017f4f7263000000000000000000000000000000000000000000000000000000000081525081526020016040518060400160405280600781526020017f44656e746973740000000000000000000000000000000000000000000000000081525081526020016040518060400160405280600781526020017f466967687465720000000000000000000000000000000000000000000000000081525081526020016040518060400160405280600681526020017f52616e676572000000000000000000000000000000000000000000000000000081525081526020016040518060400160405280600981526020017f42617262617269616e000000000000000000000000000000000000000000000081525081526020016040518060400160405280600681526020017f57697a617264000000000000000000000000000000000000000000000000000081525081526020016040518060400160405280600981526020017f536f72636572657373000000000000000000000000000000000000000000000081525081526020016040518060400160405280600b81526020017f4e6563726f6d616e63657200000000000000000000000000000000000000000081525081526020016040518060400160405280600781526020017f426c616e6b65740000000000000000000000000000000000000000000000000081525081526020016040518060400160405280600681526020017f486f6f646965000000000000000000000000000000000000000000000000000081525081526020016040518060400160405280600681526020017f536164646c65000000000000000000000000000000000000000000000000000081525081526020016040518060400160405280600981526020017f46616e6e797061636b000000000000000000000000000000000000000000000081525081526020016040518060400160405280600881526020017f5377696d7375697400000000000000000000000000000000000000000000000081525081526020016040518060400160405280600581526020017f57656e636800000000000000000000000000000000000000000000000000000081525081526020016040518060400160405280600781526020017f4d65726d6169640000000000000000000000000000000000000000000000000081525081526020016040518060400160405280600981526020017f546f616473746f6f6c000000000000000000000000000000000000000000000081525081526020016040518060400160405280600781526020017f48616d6d6f636b0000000000000000000000000000000000000000000000000081525081526020016040518060400160405280600681526020017f536176616e740000000000000000000000000000000000000000000000000000815250815250600c906026620017cb92919062001e22565b506040518061024001604052806040518060400160405280600a81526020017f6461726b6f72636869640000000000000000000000000000000000000000000081525081526020016040518060400160405280600a81526020017f636861727472657573650000000000000000000000000000000000000000000081525081526020016040518060400160405280600881526020017f6465657070696e6b00000000000000000000000000000000000000000000000081525081526020016040518060400160405280600881526020017f636f726e73696c6b00000000000000000000000000000000000000000000000081525081526020016040518060400160405280600581526020017f636f72616c00000000000000000000000000000000000000000000000000000081525081526020016040518060400160405280600d81526020017f6461726b676f6c64656e726f640000000000000000000000000000000000000081525081526020016040518060400160405280600c81526020017f6c656d6f6e63686966666f6e000000000000000000000000000000000000000081525081526020016040518060400160405280600d81526020017f6c6176656e646572626c7573680000000000000000000000000000000000000081525081526020016040518060400160405280600881526020017f686f6e657964657700000000000000000000000000000000000000000000000081525081526020016040518060400160405280600b81526020017f79656c6c6f77677265656e00000000000000000000000000000000000000000081525081526020016040518060400160405280600981526020017f74757271756f697365000000000000000000000000000000000000000000000081525081526020016040518060400160405280600681526020017f746f6d61746f000000000000000000000000000000000000000000000000000081525081526020016040518060400160405280600981526020017f6f72616e6765726564000000000000000000000000000000000000000000000081525081526020016040518060400160405280600981526020017f6f6c69766564726162000000000000000000000000000000000000000000000081525081526020016040518060400160405280600681526020017f6f7263686964000000000000000000000000000000000000000000000000000081525081526020016040518060400160405280600981526020017f70616c65677265656e000000000000000000000000000000000000000000000081525081526020016040518060400160405280600781526020017f6d6167656e74610000000000000000000000000000000000000000000000000081525081526020016040518060400160405280600481526020017f6c696d6500000000000000000000000000000000000000000000000000000000815250815250600d90601262001c0e92919062001e89565b5034801562001c1c57600080fd5b506040518060400160405280600d81526020017f4e4654536f756c732054657374000000000000000000000000000000000000008152506040518060400160405280600681526020017f5351554152450000000000000000000000000000000000000000000000000000815250816000908051906020019062001ca192919062001cc3565b50806001908051906020019062001cba92919062001cc3565b50505062001fe2565b82805462001cd19062001fac565b90600052602060002090601f01602090048101928262001cf5576000855562001d41565b82601f1062001d1057805160ff191683800117855562001d41565b8280016001018555821562001d41579182015b8281111562001d4057825182559160200191906001019062001d23565b5b50905062001d50919062001ef0565b5090565b82805482825590600052602060002090810192821562001da8579160200282015b8281111562001da757825182908051906020019062001d9692919062001cc3565b509160200191906001019062001d75565b5b50905062001db7919062001f0f565b5090565b82805482825590600052602060002090810192821562001e0f579160200282015b8281111562001e0e57825182908051906020019062001dfd92919062001cc3565b509160200191906001019062001ddc565b5b50905062001e1e919062001f0f565b5090565b82805482825590600052602060002090810192821562001e76579160200282015b8281111562001e7557825182908051906020019062001e6492919062001cc3565b509160200191906001019062001e43565b5b50905062001e85919062001f0f565b5090565b82805482825590600052602060002090810192821562001edd579160200282015b8281111562001edc57825182908051906020019062001ecb92919062001cc3565b509160200191906001019062001eaa565b5b50905062001eec919062001f0f565b5090565b5b8082111562001f0b57600081600090555060010162001ef1565b5090565b5b8082111562001f33576000818162001f29919062001f37565b5060010162001f10565b5090565b50805462001f459062001fac565b6000825580601f1062001f59575062001f7a565b601f01602090049060005260206000209081019062001f79919062001ef0565b5b50565b7f4e487b7100000000000000000000000000000000000000000000000000000000600052602260045260246000fd5b6000600282049050600182168062001fc557607f821691505b6020821081141562001fdc5762001fdb62001f7d565b5b50919050565b613a9c8062001ff26000396000f3fe608060405234801561001057600080fd5b50600436106101165760003560e01c806370a08231116100a2578063b88d4fde11610071578063b88d4fde14610317578063c575757a14610333578063c87b56dd14610363578063e4d098e114610393578063e985e9c51461039d57610116565b806370a082311461027d57806395d89b41146102ad578063a22cb465146102cb578063b187301f146102e757610116565b806323b872dd116100e957806323b872dd146101b55780632de38d68146101d157806342842e0e14610201578063514dc8c61461021d5780636352211e1461024d57610116565b806301ffc9a71461011b57806306fdde031461014b578063081812fc14610169578063095ea7b314610199575b600080fd5b61013560048036038101906101309190612311565b6103cd565b6040516101429190612359565b60405180910390f35b6101536104af565b604051610160919061240d565b60405180910390f35b610183600480360381019061017e9190612465565b610541565b60405161019091906124d3565b60405180910390f35b6101b360048036038101906101ae919061251a565b6105c6565b005b6101cf60048036038101906101ca919061255a565b6106de565b005b6101eb60048036038101906101e69190612465565b61073e565b6040516101f8919061240d565b60405180910390f35b61021b6004803603810190610216919061255a565b610836565b005b61023760048036038101906102329190612465565b610856565b604051610244919061240d565b60405180910390f35b61026760048036038101906102629190612465565b61093d565b60405161027491906124d3565b60405180910390f35b610297600480360381019061029291906125ad565b6109ef565b6040516102a491906125e9565b60405180910390f35b6102b5610aa7565b6040516102c2919061240d565b60405180910390f35b6102e560048036038101906102e09190612630565b610b39565b005b61030160048036038101906102fc9190612465565b610cba565b60405161030e919061240d565b60405180910390f35b610331600480360381019061032c91906127a5565b610db2565b005b61034d60048036038101906103489190612465565b610e14565b60405161035a919061240d565b60405180910390f35b61037d60048036038101906103789190612465565b610f0c565b60405161038a919061240d565b60405180910390f35b61039b61105e565b005b6103b760048036038101906103b29190612828565b611277565b6040516103c49190612359565b60405180910390f35b60007f80ac58cd000000000000000000000000000000000000000000000000000000007bffffffffffffffffffffffffffffffffffffffffffffffffffffffff1916827bffffffffffffffffffffffffffffffffffffffffffffffffffffffff1916148061049857507f5b5e139f000000000000000000000000000000000000000000000000000000007bffffffffffffffffffffffffffffffffffffffffffffffffffffffff1916827bffffffffffffffffffffffffffffffffffffffffffffffffffffffff1916145b806104a857506104a78261130b565b5b9050919050565b6060600080546104be90612897565b80601f01602080910402602001604051908101604052809291908181526020018280546104ea90612897565b80156105375780601f1061050c57610100808354040283529160200191610537565b820191906000526020600020905b81548152906001019060200180831161051a57829003601f168201915b5050505050905090565b600061054c82611375565b61058b576040517f08c379a00000000000000000000000000000000000000000000000000000000081526004016105829061293b565b60405180910390fd5b6004600083815260200190815260200160002060009054906101000a900473ffffffffffffffffffffffffffffffffffffffff169050919050565b60006105d18261093d565b90508073ffffffffffffffffffffffffffffffffffffffff168373ffffffffffffffffffffffffffffffffffffffff161415610642576040517f08c379a0000000000000000000000000000000000000000000000000000000008152600401610639906129cd565b60405180910390fd5b8073ffffffffffffffffffffffffffffffffffffffff166106616113e1565b73ffffffffffffffffffffffffffffffffffffffff161480610690575061068f8161068a6113e1565b611277565b5b6106cf576040517f08c379a00000000000000000000000000000000000000000000000000000000081526004016106c690612a5f565b60405180910390fd5b6106d983836113e9565b505050565b6106ef6106e96113e1565b826114a2565b61072e576040517f08c379a000000000000000000000000000000000000000000000000000000000815260040161072590612af1565b60405180910390fd5b610739838383611580565b505050565b6060600061077261074e846117dc565b60405160200161075e9190612b99565b60405160208183030381529060405261193d565b9050600a80549050816107859190612bea565b9050600a818154811061079b5761079a612c1b565b5b9060005260206000200180546107b090612897565b80601f01602080910402602001604051908101604052809291908181526020018280546107dc90612897565b80156108295780601f106107fe57610100808354040283529160200191610829565b820191906000526020600020905b81548152906001019060200180831161080c57829003601f168201915b5050505050915050919050565b61085183838360405180602001604052806000815250610db2565b505050565b606060006001600d8054905061086c9190612c79565b831161087a5782905061088e565b600d805490508361088b9190612bea565b90505b600d81815481106108a2576108a1612c1b565b5b9060005260206000200180546108b790612897565b80601f01602080910402602001604051908101604052809291908181526020018280546108e390612897565b80156109305780601f1061090557610100808354040283529160200191610930565b820191906000526020600020905b81548152906001019060200180831161091357829003601f168201915b5050505050915050919050565b6000806002600084815260200190815260200160002060009054906101000a900473ffffffffffffffffffffffffffffffffffffffff169050600073ffffffffffffffffffffffffffffffffffffffff168173ffffffffffffffffffffffffffffffffffffffff1614156109e6576040517f08c379a00000000000000000000000000000000000000000000000000000000081526004016109dd90612d1f565b60405180910390fd5b80915050919050565b60008073ffffffffffffffffffffffffffffffffffffffff168273ffffffffffffffffffffffffffffffffffffffff161415610a60576040517f08c379a0000000000000000000000000000000000000000000000000000000008152600401610a5790612db1565b60405180910390fd5b600360008373ffffffffffffffffffffffffffffffffffffffff1673ffffffffffffffffffffffffffffffffffffffff168152602001908152602001600020549050919050565b606060018054610ab690612897565b80601f0160208091040260200160405190810160405280929190818152602001828054610ae290612897565b8015610b2f5780601f10610b0457610100808354040283529160200191610b2f565b820191906000526020600020905b815481529060010190602001808311610b1257829003601f168201915b5050505050905090565b610b416113e1565b73ffffffffffffffffffffffffffffffffffffffff168273ffffffffffffffffffffffffffffffffffffffff161415610baf576040517f08c379a0000000000000000000000000000000000000000000000000000000008152600401610ba690612e1d565b60405180910390fd5b8060056000610bbc6113e1565b73ffffffffffffffffffffffffffffffffffffffff1673ffffffffffffffffffffffffffffffffffffffff16815260200190815260200160002060008473ffffffffffffffffffffffffffffffffffffffff1673ffffffffffffffffffffffffffffffffffffffff16815260200190815260200160002060006101000a81548160ff0219169083151502179055508173ffffffffffffffffffffffffffffffffffffffff16610c696113e1565b73ffffffffffffffffffffffffffffffffffffffff167f17307eab39ab6107e8899845ad3d59bd9653f200f220920489ca2b5937696c3183604051610cae9190612359565b60405180910390a35050565b60606000610cee610cca846117dc565b604051602001610cda9190612e89565b60405160208183030381529060405261193d565b9050600b8054905081610d019190612bea565b9050600b8181548110610d1757610d16612c1b565b5b906000526020600020018054610d2c90612897565b80601f0160208091040260200160405190810160405280929190818152602001828054610d5890612897565b8015610da55780601f10610d7a57610100808354040283529160200191610da5565b820191906000526020600020905b815481529060010190602001808311610d8857829003601f168201915b5050505050915050919050565b610dc3610dbd6113e1565b836114a2565b610e02576040517f08c379a0000000000000000000000000000000000000000000000000000000008152600401610df990612af1565b60405180910390fd5b610e0e84848484611970565b50505050565b60606000610e48610e24846117dc565b604051602001610e349190612ef7565b60405160208183030381529060405261193d565b9050600c8054905081610e5b9190612bea565b9050600c8181548110610e7157610e70612c1b565b5b906000526020600020018054610e8690612897565b80601f0160208091040260200160405190810160405280929190818152602001828054610eb290612897565b8015610eff5780601f10610ed457610100808354040283529160200191610eff565b820191906000526020600020905b815481529060010190602001808311610ee257829003601f168201915b5050505050915050919050565b6060610f1782611375565b610f56576040517f08c379a0000000000000000000000000000000000000000000000000000000008152600401610f4d90612f8b565b60405180910390fd5b6000600660008481526020019081526020016000208054610f7690612897565b80601f0160208091040260200160405190810160405280929190818152602001828054610fa290612897565b8015610fef5780601f10610fc457610100808354040283529160200191610fef565b820191906000526020600020905b815481529060010190602001808311610fd257829003601f168201915b5050505050905060006110006119cc565b9050600081511415611016578192505050611059565b60008251111561104b578082604051602001611033929190612fab565b60405160208183030381529060405292505050611059565b611054846119e3565b925050505b919050565b600061106a6007611a8a565b905060006110778261073e565b9050600061108483610cba565b9050600061109184610e14565b905060008383836040516020016110aa93929190612fcf565b604051602081830303815290604052905060006110c686610856565b6040516020016110d69190613000565b6040516020818303038152906040529050600060088260098560405160200161110294939291906130f7565b604051602081830303815290604052905060006111478461112284611a98565b604051602001611133929190613296565b604051602081830303815290604052611a98565b905060008160405160200161115c9190613327565b60405160208183030381529060405290506111ab6040518060400160405280601581526020017f0a2d2d2d2d2d2d2d2d2d2d2d2d2d2d2d2d2d2d2d2d0000000000000000000000815250611c30565b6111b481611c30565b6111f26040518060400160405280601581526020017f2d2d2d2d2d2d2d2d2d2d2d2d2d2d2d2d2d2d2d2d0a0000000000000000000000815250611c30565b6111fc338a611cc9565b6112068982611ce7565b6112106007611d5b565b7f8d63d5127af65dc1deee6aa1f9b1a0795a5fa0a2422793aeffe236dcd208cb48338a604051611241929190613349565b60405180910390a161126c604051806060016040528060258152602001613a02602591398a33611d71565b505050505050505050565b6000600560008473ffffffffffffffffffffffffffffffffffffffff1673ffffffffffffffffffffffffffffffffffffffff16815260200190815260200160002060008373ffffffffffffffffffffffffffffffffffffffff1673ffffffffffffffffffffffffffffffffffffffff16815260200190815260200160002060009054906101000a900460ff16905092915050565b60007f01ffc9a7000000000000000000000000000000000000000000000000000000007bffffffffffffffffffffffffffffffffffffffffffffffffffffffff1916827bffffffffffffffffffffffffffffffffffffffffffffffffffffffff1916149050919050565b60008073ffffffffffffffffffffffffffffffffffffffff166002600084815260200190815260200160002060009054906101000a900473ffffffffffffffffffffffffffffffffffffffff1673ffffffffffffffffffffffffffffffffffffffff1614159050919050565b600033905090565b816004600083815260200190815260200160002060006101000a81548173ffffffffffffffffffffffffffffffffffffffff021916908373ffffffffffffffffffffffffffffffffffffffff160217905550808273ffffffffffffffffffffffffffffffffffffffff1661145c8361093d565b73ffffffffffffffffffffffffffffffffffffffff167f8c5be1e5ebec7d5bd14f71427d1e84f3dd0314c0f7b2291e5b200ac8c7c3b92560405160405180910390a45050565b60006114ad82611375565b6114ec576040517f08c379a00000000000000000000000000000000000000000000000000000000081526004016114e3906133e4565b60405180910390fd5b60006114f78361093d565b90508073ffffffffffffffffffffffffffffffffffffffff168473ffffffffffffffffffffffffffffffffffffffff16148061156657508373ffffffffffffffffffffffffffffffffffffffff1661154e84610541565b73ffffffffffffffffffffffffffffffffffffffff16145b8061157757506115768185611277565b5b91505092915050565b8273ffffffffffffffffffffffffffffffffffffffff166115a08261093d565b73ffffffffffffffffffffffffffffffffffffffff16146115f6576040517f08c379a00000000000000000000000000000000000000000000000000000000081526004016115ed90613476565b60405180910390fd5b600073ffffffffffffffffffffffffffffffffffffffff168273ffffffffffffffffffffffffffffffffffffffff161415611666576040517f08c379a000000000000000000000000000000000000000000000000000000000815260040161165d90613508565b60405180910390fd5b611671838383611e10565b61167c6000826113e9565b6001600360008573ffffffffffffffffffffffffffffffffffffffff1673ffffffffffffffffffffffffffffffffffffffff16815260200190815260200160002060008282546116cc9190612c79565b925050819055506001600360008473ffffffffffffffffffffffffffffffffffffffff1673ffffffffffffffffffffffffffffffffffffffff16815260200190815260200160002060008282546117239190613528565b92505081905550816002600083815260200190815260200160002060006101000a81548173ffffffffffffffffffffffffffffffffffffffff021916908373ffffffffffffffffffffffffffffffffffffffff160217905550808273ffffffffffffffffffffffffffffffffffffffff168473ffffffffffffffffffffffffffffffffffffffff167fddf252ad1be2c89b69c2b068fc378daa952ba7f163c4a11628f55a4df523b3ef60405160405180910390a4505050565b60606000821415611824576040518060400160405280600181526020017f30000000000000000000000000000000000000000000000000000000000000008152509050611938565b600082905060005b6000821461185657808061183f9061357e565b915050600a8261184f91906135c7565b915061182c565b60008167ffffffffffffffff8111156118725761187161267a565b5b6040519080825280601f01601f1916602001820160405280156118a45781602001600182028036833780820191505090505b5090505b60008514611931576001826118bd9190612c79565b9150600a856118cc9190612bea565b60306118d89190613528565b60f81b8183815181106118ee576118ed612c1b565b5b60200101907effffffffffffffffffffffffffffffffffffffffffffffffffffffffffffff1916908160001a905350600a8561192a91906135c7565b94506118a8565b8093505050505b919050565b6000816040516020016119509190613000565b6040516020818303038152906040528051906020012060001c9050919050565b61197b848484611580565b61198784848484611e15565b6119c6576040517f08c379a00000000000000000000000000000000000000000000000000000000081526004016119bd9061366a565b60405180910390fd5b50505050565b606060405180602001604052806000815250905090565b60606119ee82611375565b611a2d576040517f08c379a0000000000000000000000000000000000000000000000000000000008152600401611a24906136fc565b60405180910390fd5b6000611a376119cc565b90506000815111611a575760405180602001604052806000815250611a82565b80611a61846117dc565b604051602001611a72929190612fab565b6040516020818303038152906040525b915050919050565b600081600001549050919050565b60606000825190506000811415611ac15760405180602001604052806000815250915050611c2b565b60006003600283611ad29190613528565b611adc91906135c7565b6004611ae8919061371c565b90506000602082611af99190613528565b67ffffffffffffffff811115611b1257611b1161267a565b5b6040519080825280601f01601f191660200182016040528015611b445781602001600182028036833780820191505090505b5090506000604051806060016040528060408152602001613a27604091399050600181016020830160005b86811015611be85760038101905062ffffff818a015116603f8160121c168401518060081b905060ff603f83600c1c1686015116810190508060081b905060ff603f8360061c1686015116810190508060081b905060ff603f831686015116810190508060e01b90508084526004840193505050611b6f565b506003860660018114611c025760028114611c1257611c1d565b613d3d60f01b6002830352611c1d565b603d60f81b60018303525b508484525050819450505050505b919050565b611cc681604051602401611c44919061240d565b6040516020818303038152906040527f41304fac000000000000000000000000000000000000000000000000000000007bffffffffffffffffffffffffffffffffffffffffffffffffffffffff19166020820180517bffffffffffffffffffffffffffffffffffffffffffffffffffffffff8381831617835250505050611f9d565b50565b611ce3828260405180602001604052806000815250611fc6565b5050565b611cf082611375565b611d2f576040517f08c379a0000000000000000000000000000000000000000000000000000000008152600401611d26906137e8565b60405180910390fd5b80600660008481526020019081526020016000209080519060200190611d56929190612202565b505050565b6001816000016000828254019250508190555050565b611e0b838383604051602401611d8993929190613808565b6040516020818303038152906040527fe3849f79000000000000000000000000000000000000000000000000000000007bffffffffffffffffffffffffffffffffffffffffffffffffffffffff19166020820180517bffffffffffffffffffffffffffffffffffffffffffffffffffffffff8381831617835250505050611f9d565b505050565b505050565b6000611e368473ffffffffffffffffffffffffffffffffffffffff16612021565b15611f90578373ffffffffffffffffffffffffffffffffffffffff1663150b7a02611e5f6113e1565b8786866040518563ffffffff1660e01b8152600401611e81949392919061389b565b6020604051808303816000875af1925050508015611ebd57506040513d601f19601f82011682018060405250810190611eba91906138fc565b60015b611f40573d8060008114611eed576040519150601f19603f3d011682016040523d82523d6000602084013e611ef2565b606091505b50600081511415611f38576040517f08c379a0000000000000000000000000000000000000000000000000000000008152600401611f2f9061366a565b60405180910390fd5b805181602001fd5b63150b7a0260e01b7bffffffffffffffffffffffffffffffffffffffffffffffffffffffff1916817bffffffffffffffffffffffffffffffffffffffffffffffffffffffff191614915050611f95565b600190505b949350505050565b60008151905060006a636f6e736f6c652e6c6f679050602083016000808483855afa5050505050565b611fd08383612034565b611fdd6000848484611e15565b61201c576040517f08c379a00000000000000000000000000000000000000000000000000000000081526004016120139061366a565b60405180910390fd5b505050565b600080823b905060008111915050919050565b600073ffffffffffffffffffffffffffffffffffffffff168273ffffffffffffffffffffffffffffffffffffffff1614156120a4576040517f08c379a000000000000000000000000000000000000000000000000000000000815260040161209b90613975565b60405180910390fd5b6120ad81611375565b156120ed576040517f08c379a00000000000000000000000000000000000000000000000000000000081526004016120e4906139e1565b60405180910390fd5b6120f960008383611e10565b6001600360008473ffffffffffffffffffffffffffffffffffffffff1673ffffffffffffffffffffffffffffffffffffffff16815260200190815260200160002060008282546121499190613528565b92505081905550816002600083815260200190815260200160002060006101000a81548173ffffffffffffffffffffffffffffffffffffffff021916908373ffffffffffffffffffffffffffffffffffffffff160217905550808273ffffffffffffffffffffffffffffffffffffffff16600073ffffffffffffffffffffffffffffffffffffffff167fddf252ad1be2c89b69c2b068fc378daa952ba7f163c4a11628f55a4df523b3ef60405160405180910390a45050565b82805461220e90612897565b90600052602060002090601f0160209004810192826122305760008555612277565b82601f1061224957805160ff1916838001178555612277565b82800160010185558215612277579182015b8281111561227657825182559160200191906001019061225b565b5b5090506122849190612288565b5090565b5b808211156122a1576000816000905550600101612289565b5090565b6000604051905090565b600080fd5b600080fd5b60007fffffffff0000000000000000000000000000000000000000000000000000000082169050919050565b6122ee816122b9565b81146122f957600080fd5b50565b60008135905061230b816122e5565b92915050565b600060208284031215612327576123266122af565b5b6000612335848285016122fc565b91505092915050565b60008115159050919050565b6123538161233e565b82525050565b600060208201905061236e600083018461234a565b92915050565b600081519050919050565b600082825260208201905092915050565b60005b838110156123ae578082015181840152602081019050612393565b838111156123bd576000848401525b50505050565b6000601f19601f8301169050919050565b60006123df82612374565b6123e9818561237f565b93506123f9818560208601612390565b612402816123c3565b840191505092915050565b6000602082019050818103600083015261242781846123d4565b905092915050565b6000819050919050565b6124428161242f565b811461244d57600080fd5b50565b60008135905061245f81612439565b92915050565b60006020828403121561247b5761247a6122af565b5b600061248984828501612450565b91505092915050565b600073ffffffffffffffffffffffffffffffffffffffff82169050919050565b60006124bd82612492565b9050919050565b6124cd816124b2565b82525050565b60006020820190506124e860008301846124c4565b92915050565b6124f7816124b2565b811461250257600080fd5b50565b600081359050612514816124ee565b92915050565b60008060408385031215612531576125306122af565b5b600061253f85828601612505565b925050602061255085828601612450565b9150509250929050565b600080600060608486031215612573576125726122af565b5b600061258186828701612505565b935050602061259286828701612505565b92505060406125a386828701612450565b9150509250925092565b6000602082840312156125c3576125c26122af565b5b60006125d184828501612505565b91505092915050565b6125e38161242f565b82525050565b60006020820190506125fe60008301846125da565b92915050565b61260d8161233e565b811461261857600080fd5b50565b60008135905061262a81612604565b92915050565b60008060408385031215612647576126466122af565b5b600061265585828601612505565b92505060206126668582860161261b565b9150509250929050565b600080fd5b600080fd5b7f4e487b7100000000000000000000000000000000000000000000000000000000600052604160045260246000fd5b6126b2826123c3565b810181811067ffffffffffffffff821117156126d1576126d061267a565b5b80604052505050565b60006126e46122a5565b90506126f082826126a9565b919050565b600067ffffffffffffffff8211156127105761270f61267a565b5b612719826123c3565b9050602081019050919050565b82818337600083830152505050565b6000612748612743846126f5565b6126da565b90508281526020810184848401111561276457612763612675565b5b61276f848285612726565b509392505050565b600082601f83011261278c5761278b612670565b5b813561279c848260208601612735565b91505092915050565b600080600080608085870312156127bf576127be6122af565b5b60006127cd87828801612505565b94505060206127de87828801612505565b93505060406127ef87828801612450565b925050606085013567ffffffffffffffff8111156128105761280f6122b4565b5b61281c87828801612777565b91505092959194509250565b6000806040838503121561283f5761283e6122af565b5b600061284d85828601612505565b925050602061285e85828601612505565b9150509250929050565b7f4e487b7100000000000000000000000000000000000000000000000000000000600052602260045260246000fd5b600060028204905060018216806128af57607f821691505b602082108114156128c3576128c2612868565b5b50919050565b7f4552433732313a20617070726f76656420717565727920666f72206e6f6e657860008201527f697374656e7420746f6b656e0000000000000000000000000000000000000000602082015250565b6000612925602c8361237f565b9150612930826128c9565b604082019050919050565b6000602082019050818103600083015261295481612918565b9050919050565b7f4552433732313a20617070726f76616c20746f2063757272656e74206f776e6560008201527f7200000000000000000000000000000000000000000000000000000000000000602082015250565b60006129b760218361237f565b91506129c28261295b565b604082019050919050565b600060208201905081810360008301526129e6816129aa565b9050919050565b7f4552433732313a20617070726f76652063616c6c6572206973206e6f74206f7760008201527f6e6572206e6f7220617070726f76656420666f7220616c6c0000000000000000602082015250565b6000612a4960388361237f565b9150612a54826129ed565b604082019050919050565b60006020820190508181036000830152612a7881612a3c565b9050919050565b7f4552433732313a207472616e736665722063616c6c6572206973206e6f74206f60008201527f776e6572206e6f7220617070726f766564000000000000000000000000000000602082015250565b6000612adb60318361237f565b9150612ae682612a7f565b604082019050919050565b60006020820190508181036000830152612b0a81612ace565b9050919050565b600081905092915050565b7f46495253545f574f524400000000000000000000000000000000000000000000600082015250565b6000612b52600a83612b11565b9150612b5d82612b1c565b600a82019050919050565b6000612b7382612374565b612b7d8185612b11565b9350612b8d818560208601612390565b80840191505092915050565b6000612ba482612b45565b9150612bb08284612b68565b915081905092915050565b7f4e487b7100000000000000000000000000000000000000000000000000000000600052601260045260246000fd5b6000612bf58261242f565b9150612c008361242f565b925082612c1057612c0f612bbb565b5b828206905092915050565b7f4e487b7100000000000000000000000000000000000000000000000000000000600052603260045260246000fd5b7f4e487b7100000000000000000000000000000000000000000000000000000000600052601160045260246000fd5b6000612c848261242f565b9150612c8f8361242f565b925082821015612ca257612ca1612c4a565b5b828203905092915050565b7f4552433732313a206f776e657220717565727920666f72206e6f6e657869737460008201527f656e7420746f6b656e0000000000000000000000000000000000000000000000602082015250565b6000612d0960298361237f565b9150612d1482612cad565b604082019050919050565b60006020820190508181036000830152612d3881612cfc565b9050919050565b7f4552433732313a2062616c616e636520717565727920666f7220746865207a6560008201527f726f206164647265737300000000000000000000000000000000000000000000602082015250565b6000612d9b602a8361237f565b9150612da682612d3f565b604082019050919050565b60006020820190508181036000830152612dca81612d8e565b9050919050565b7f4552433732313a20617070726f766520746f2063616c6c657200000000000000600082015250565b6000612e0760198361237f565b9150612e1282612dd1565b602082019050919050565b60006020820190508181036000830152612e3681612dfa565b9050919050565b7f5345434f4e445f574f5244000000000000000000000000000000000000000000600082015250565b6000612e73600b83612b11565b9150612e7e82612e3d565b600b82019050919050565b6000612e9482612e66565b9150612ea08284612b68565b915081905092915050565b7f54484952445f574f524400000000000000000000000000000000000000000000600082015250565b6000612ee1600a83612b11565b9150612eec82612eab565b600a82019050919050565b6000612f0282612ed4565b9150612f0e8284612b68565b915081905092915050565b7f45524337323155524953746f726167653a2055524920717565727920666f722060008201527f6e6f6e6578697374656e7420746f6b656e000000000000000000000000000000602082015250565b6000612f7560318361237f565b9150612f8082612f19565b604082019050919050565b60006020820190508181036000830152612fa481612f68565b9050919050565b6000612fb78285612b68565b9150612fc38284612b68565b91508190509392505050565b6000612fdb8286612b68565b9150612fe78285612b68565b9150612ff38284612b68565b9150819050949350505050565b600061300c8284612b68565b915081905092915050565b60008190508160005260206000209050919050565b6000815461303981612897565b6130438186612b11565b9450600182166000811461305e576001811461306f576130a2565b60ff198316865281860193506130a2565b61307885613017565b60005b8381101561309a5781548189015260018201915060208101905061307b565b838801955050505b50505092915050565b7f3c2f746578743e3c2f7376673e00000000000000000000000000000000000000600082015250565b60006130e1600d83612b11565b91506130ec826130ab565b600d82019050919050565b6000613103828761302c565b915061310f8286612b68565b915061311b828561302c565b91506131278284612b68565b9150613132826130d4565b915081905095945050505050565b7f7b226e616d65223a202200000000000000000000000000000000000000000000600082015250565b6000613176600a83612b11565b915061318182613140565b600a82019050919050565b7f222c20226465736372697074696f6e223a20224120636f6c6c656374696f6e2060008201527f6f662067656e6572617469766520776f726b732c2074657374696e6720666f7260208201527f204e4654536f756c732050726f6a6563742e222c2022696d616765223a20226460408201527f6174613a696d6167652f7376672b786d6c3b6261736536342c00000000000000606082015250565b6000613234607983612b11565b915061323f8261318c565b607982019050919050565b7f227d000000000000000000000000000000000000000000000000000000000000600082015250565b6000613280600283612b11565b915061328b8261324a565b600282019050919050565b60006132a182613169565b91506132ad8285612b68565b91506132b882613227565b91506132c48284612b68565b91506132cf82613273565b91508190509392505050565b7f646174613a6170706c69636174696f6e2f6a736f6e3b6261736536342c000000600082015250565b6000613311601d83612b11565b915061331c826132db565b601d82019050919050565b600061333282613304565b915061333e8284612b68565b915081905092915050565b600060408201905061335e60008301856124c4565b61336b60208301846125da565b9392505050565b7f4552433732313a206f70657261746f7220717565727920666f72206e6f6e657860008201527f697374656e7420746f6b656e0000000000000000000000000000000000000000602082015250565b60006133ce602c8361237f565b91506133d982613372565b604082019050919050565b600060208201905081810360008301526133fd816133c1565b9050919050565b7f4552433732313a207472616e73666572206f6620746f6b656e2074686174206960008201527f73206e6f74206f776e0000000000000000000000000000000000000000000000602082015250565b600061346060298361237f565b915061346b82613404565b604082019050919050565b6000602082019050818103600083015261348f81613453565b9050919050565b7f4552433732313a207472616e7366657220746f20746865207a65726f2061646460008201527f7265737300000000000000000000000000000000000000000000000000000000602082015250565b60006134f260248361237f565b91506134fd82613496565b604082019050919050565b60006020820190508181036000830152613521816134e5565b9050919050565b60006135338261242f565b915061353e8361242f565b9250827fffffffffffffffffffffffffffffffffffffffffffffffffffffffffffffffff0382111561357357613572612c4a565b5b828201905092915050565b60006135898261242f565b91507fffffffffffffffffffffffffffffffffffffffffffffffffffffffffffffffff8214156135bc576135bb612c4a565b5b600182019050919050565b60006135d28261242f565b91506135dd8361242f565b9250826135ed576135ec612bbb565b5b828204905092915050565b7f4552433732313a207472616e7366657220746f206e6f6e20455243373231526560008201527f63656976657220696d706c656d656e7465720000000000000000000000000000602082015250565b600061365460328361237f565b915061365f826135f8565b604082019050919050565b6000602082019050818103600083015261368381613647565b9050919050565b7f4552433732314d657461646174613a2055524920717565727920666f72206e6f60008201527f6e6578697374656e7420746f6b656e0000000000000000000000000000000000602082015250565b60006136e6602f8361237f565b91506136f18261368a565b604082019050919050565b60006020820190508181036000830152613715816136d9565b9050919050565b60006137278261242f565b91506137328361242f565b9250817fffffffffffffffffffffffffffffffffffffffffffffffffffffffffffffffff048311821515161561376b5761376a612c4a565b5b828202905092915050565b7f45524337323155524953746f726167653a2055524920736574206f66206e6f6e60008201527f6578697374656e7420746f6b656e000000000000000000000000000000000000602082015250565b60006137d2602e8361237f565b91506137dd82613776565b604082019050919050565b60006020820190508181036000830152613801816137c5565b9050919050565b6000606082019050818103600083015261382281866123d4565b905061383160208301856125da565b61383e60408301846124c4565b949350505050565b600081519050919050565b600082825260208201905092915050565b600061386d82613846565b6138778185613851565b9350613887818560208601612390565b613890816123c3565b840191505092915050565b60006080820190506138b060008301876124c4565b6138bd60208301866124c4565b6138ca60408301856125da565b81810360608301526138dc8184613862565b905095945050505050565b6000815190506138f6816122e5565b92915050565b600060208284031215613912576139116122af565b5b6000613920848285016138e7565b91505092915050565b7f4552433732313a206d696e7420746f20746865207a65726f2061646472657373600082015250565b600061395f60208361237f565b915061396a82613929565b602082019050919050565b6000602082019050818103600083015261398e81613952565b9050919050565b7f4552433732313a20746f6b656e20616c7265616479206d696e74656400000000600082015250565b60006139cb601c8361237f565b91506139d682613995565b602082019050919050565b600060208201905081810360008301526139fa816139be565b905091905056fe416e204e465420772f20494420257320686173206265656e206d696e74656420746f2025734142434445464748494a4b4c4d4e4f505152535455565758595a6162636465666768696a6b6c6d6e6f707172737475767778797a303132333435363738392b2fa2646970667358221220b68a140f47e514c21a1204b7d85f32cb1b23c14f46216e8a65a32be88c0c5fa564736f6c634300080a00333c73766720786d6c6e733d27687474703a2f2f7777772e77332e6f72672f323030302f73766727207072657365727665417370656374526174696f3d27784d696e594d696e206d656574272076696577426f783d273020302033353020333530273e3c7374796c653e2e62617365207b2066696c6c3a2077686974653b20666f6e742d66616d696c793a2073657269663b20666f6e742d73697a653a20323470783b207d3c2f7374796c653e3c726563742077696474683d273130302527206865696768743d2731303025272066696c6c3d2727202f3e3c7465787420783d273530252720793d273530252720636c6173733d27626173652720646f6d696e616e742d626173656c696e653d276d6964646c652720746578742d616e63686f723d276d6964646c65273e",
    "linkReferences": {},
    "deployedLinkReferences": {}
}