{
  "_format": "hh-sol-artifact-1",
  "contractName": "ThreeRandomWordsNFT",
  "sourceName": "contracts/ThreeRandomWordsNFT.sol",
  "abi": [
    {
      "inputs": [],
      "stateMutability": "nonpayable",
      "type": "constructor"
    },
    {
      "anonymous": false,
      "inputs": [
        {
          "indexed": true,
          "internalType": "address",
          "name": "owner",
          "type": "address"
        },
        {
          "indexed": true,
          "internalType": "address",
          "name": "approved",
          "type": "address"
        },
        {
          "indexed": true,
          "internalType": "uint256",
          "name": "tokenId",
          "type": "uint256"
        }
      ],
      "name": "Approval",
      "type": "event"
    },
    {
      "anonymous": false,
      "inputs": [
        {
          "indexed": true,
          "internalType": "address",
          "name": "owner",
          "type": "address"
        },
        {
          "indexed": true,
          "internalType": "address",
          "name": "operator",
          "type": "address"
        },
        {
          "indexed": false,
          "internalType": "bool",
          "name": "approved",
          "type": "bool"
        }
      ],
      "name": "ApprovalForAll",
      "type": "event"
    },
    {
      "anonymous": false,
      "inputs": [
        {
          "indexed": false,
          "internalType": "address",
          "name": "sender",
          "type": "address"
        },
        {
          "indexed": false,
          "internalType": "uint256",
          "name": "tokenId",
          "type": "uint256"
        }
      ],
      "name": "NewThreeRandomWordNFTMinted",
      "type": "event"
    },
    {
      "anonymous": false,
      "inputs": [
        {
          "indexed": true,
          "internalType": "address",
          "name": "from",
          "type": "address"
        },
        {
          "indexed": true,
          "internalType": "address",
          "name": "to",
          "type": "address"
        },
        {
          "indexed": true,
          "internalType": "uint256",
          "name": "tokenId",
          "type": "uint256"
        }
      ],
      "name": "Transfer",
      "type": "event"
    },
    {
      "inputs": [
        {
          "internalType": "address",
          "name": "to",
          "type": "address"
        },
        {
          "internalType": "uint256",
          "name": "tokenId",
          "type": "uint256"
        }
      ],
      "name": "approve",
      "outputs": [],
      "stateMutability": "nonpayable",
      "type": "function"
    },
    {
      "inputs": [
        {
          "internalType": "address",
          "name": "owner",
          "type": "address"
        }
      ],
      "name": "balanceOf",
      "outputs": [
        {
          "internalType": "uint256",
          "name": "",
          "type": "uint256"
        }
      ],
      "stateMutability": "view",
      "type": "function"
    },
    {
      "inputs": [
        {
          "internalType": "uint256",
          "name": "tokenId",
          "type": "uint256"
        }
      ],
      "name": "getApproved",
      "outputs": [
        {
          "internalType": "address",
          "name": "",
          "type": "address"
        }
      ],
      "stateMutability": "view",
      "type": "function"
    },
    {
      "inputs": [
        {
          "internalType": "address",
          "name": "owner",
          "type": "address"
        },
        {
          "internalType": "address",
          "name": "operator",
          "type": "address"
        }
      ],
      "name": "isApprovedForAll",
      "outputs": [
        {
          "internalType": "bool",
          "name": "",
          "type": "bool"
        }
      ],
      "stateMutability": "view",
      "type": "function"
    },
    {
      "inputs": [],
      "name": "makeAnNFT",
      "outputs": [],
      "stateMutability": "nonpayable",
      "type": "function"
    },
    {
      "inputs": [],
      "name": "name",
      "outputs": [
        {
          "internalType": "string",
          "name": "",
          "type": "string"
        }
      ],
      "stateMutability": "view",
      "type": "function"
    },
    {
      "inputs": [
        {
          "internalType": "uint256",
          "name": "tokenId",
          "type": "uint256"
        }
      ],
      "name": "ownerOf",
      "outputs": [
        {
          "internalType": "address",
          "name": "",
          "type": "address"
        }
      ],
      "stateMutability": "view",
      "type": "function"
    },
    {
      "inputs": [
        {
          "internalType": "uint256",
          "name": "tokenId",
          "type": "uint256"
        }
      ],
      "name": "pickRandomColor",
      "outputs": [
        {
          "internalType": "string",
          "name": "",
          "type": "string"
        }
      ],
      "stateMutability": "view",
      "type": "function"
    },
    {
      "inputs": [
        {
          "internalType": "uint256",
          "name": "tokenId",
          "type": "uint256"
        }
      ],
      "name": "pickRandomFirstWord",
      "outputs": [
        {
          "internalType": "string",
          "name": "",
          "type": "string"
        }
      ],
      "stateMutability": "view",
      "type": "function"
    },
    {
      "inputs": [
        {
          "internalType": "uint256",
          "name": "tokenId",
          "type": "uint256"
        }
      ],
      "name": "pickRandomSecondWord",
      "outputs": [
        {
          "internalType": "string",
          "name": "",
          "type": "string"
        }
      ],
      "stateMutability": "view",
      "type": "function"
    },
    {
      "inputs": [
        {
          "internalType": "uint256",
          "name": "tokenId",
          "type": "uint256"
        }
      ],
      "name": "pickRandomThirdWord",
      "outputs": [
        {
          "internalType": "string",
          "name": "",
          "type": "string"
        }
      ],
      "stateMutability": "view",
      "type": "function"
    },
    {
      "inputs": [
        {
          "internalType": "address",
          "name": "from",
          "type": "address"
        },
        {
          "internalType": "address",
          "name": "to",
          "type": "address"
        },
        {
          "internalType": "uint256",
          "name": "tokenId",
          "type": "uint256"
        }
      ],
      "name": "safeTransferFrom",
      "outputs": [],
      "stateMutability": "nonpayable",
      "type": "function"
    },
    {
      "inputs": [
        {
          "internalType": "address",
          "name": "from",
          "type": "address"
        },
        {
          "internalType": "address",
          "name": "to",
          "type": "address"
        },
        {
          "internalType": "uint256",
          "name": "tokenId",
          "type": "uint256"
        },
        {
          "internalType": "bytes",
          "name": "_data",
          "type": "bytes"
        }
      ],
      "name": "safeTransferFrom",
      "outputs": [],
      "stateMutability": "nonpayable",
      "type": "function"
    },
    {
      "inputs": [
        {
          "internalType": "address",
          "name": "operator",
          "type": "address"
        },
        {
          "internalType": "bool",
          "name": "approved",
          "type": "bool"
        }
      ],
      "name": "setApprovalForAll",
      "outputs": [],
      "stateMutability": "nonpayable",
      "type": "function"
    },
    {
      "inputs": [
        {
          "internalType": "bytes4",
          "name": "interfaceId",
          "type": "bytes4"
        }
      ],
      "name": "supportsInterface",
      "outputs": [
        {
          "internalType": "bool",
          "name": "",
          "type": "bool"
        }
      ],
      "stateMutability": "view",
      "type": "function"
    },
    {
      "inputs": [],
      "name": "symbol",
      "outputs": [
        {
          "internalType": "string",
          "name": "",
          "type": "string"
        }
      ],
      "stateMutability": "view",
      "type": "function"
    },
    {
      "inputs": [
        {
          "internalType": "uint256",
          "name": "tokenId",
          "type": "uint256"
        }
      ],
      "name": "tokenURI",
      "outputs": [
        {
          "internalType": "string",
          "name": "",
          "type": "string"
        }
      ],
      "stateMutability": "view",
      "type": "function"
    },
    {
      "inputs": [
        {
          "internalType": "address",
          "name": "from",
          "type": "address"
        },
        {
          "internalType": "address",
          "name": "to",
          "type": "address"
        },
        {
          "internalType": "uint256",
          "name": "tokenId",
          "type": "uint256"
        }
      ],
      "name": "transferFrom",
      "outputs": [],
      "stateMutability": "nonpayable",
      "type": "function"
    }
  ],
  "bytecode": "0x608060405260405180610100016040528060d3815260200162005a6f60d39139600890805190602001906200003692919062001cc3565b5060405180608001604052806057815260200162005b4260579139600990805190602001906200006892919062001cc3565b506040518061040001604052806040518060400160405280600881526020017f446f6d696e616e7400000000000000000000000000000000000000000000000081525081526020016040518060400160405280600a81526020017f5375626d6973736976650000000000000000000000000000000000000000000081525081526020016040518060400160405280600781526020017f4261726b696e670000000000000000000000000000000000000000000000000081525081526020016040518060400160405280600681526020017f536176616765000000000000000000000000000000000000000000000000000081525081526020016040518060400160405280600881526020017f436f6e7374616e7400000000000000000000000000000000000000000000000081525081526020016040518060400160405280600781526020017f44796e616d69630000000000000000000000000000000000000000000000000081525081526020016040518060400160405280600b81526020017f53757065726c617469766500000000000000000000000000000000000000000081525081526020016040518060400160405280600881526020017f416e696d6174656400000000000000000000000000000000000000000000000081525081526020016040518060400160405280600b81526020017f486f6c6f6772617068696300000000000000000000000000000000000000000081525081526020016040518060400160405280600681526020017f4379626f7267000000000000000000000000000000000000000000000000000081525081526020016040518060400160405280600681526020017f4368726f6d65000000000000000000000000000000000000000000000000000081525081526020016040518060400160405280600781526020017f5261696e626f770000000000000000000000000000000000000000000000000081525081526020016040518060400160405280600b81526020017f4578747261766167616e7400000000000000000000000000000000000000000081525081526020016040518060400160405280600b81526020017f4e6f6e73656e736963616c00000000000000000000000000000000000000000081525081526020016040518060400160405280600981526020017f4d696e696174757265000000000000000000000000000000000000000000000081525081526020016040518060400160405280600981526020017f446566656374697665000000000000000000000000000000000000000000000081525081526020016040518060400160405280600781526020017f41646f707465640000000000000000000000000000000000000000000000000081525081526020016040518060400160405280600781526020017f426f74746c65640000000000000000000000000000000000000000000000000081525081526020016040518060400160405280600781526020017f53757072656d650000000000000000000000000000000000000000000000000081525081526020016040518060400160405280600b81526020017f44696c617069746174656400000000000000000000000000000000000000000081525081526020016040518060400160405280600481526020017f526172650000000000000000000000000000000000000000000000000000000081525081526020016040518060400160405280600881526020017f556c74696d61746500000000000000000000000000000000000000000000000081525081526020016040518060400160405280600681526020017f476f6c64656e000000000000000000000000000000000000000000000000000081525081526020016040518060400160405280600681526020017f556e64656164000000000000000000000000000000000000000000000000000081525081526020016040518060400160405280600781526020017f4477617276656e0000000000000000000000000000000000000000000000000081525081526020016040518060400160405280600681526020017f456c6576656e000000000000000000000000000000000000000000000000000081525081526020016040518060400160405280600b81526020017f4d6963726f73636f70696300000000000000000000000000000000000000000081525081526020016040518060400160405280600781526020017f47656e657469630000000000000000000000000000000000000000000000000081525081526020016040518060400160405280600c81526020017f53757065726e61747572616c000000000000000000000000000000000000000081525081526020016040518060400160405280600981526020017f4c75787572696f7573000000000000000000000000000000000000000000000081525081526020016040518060400160405280600881526020017f4c61756768696e6700000000000000000000000000000000000000000000000081525081526020016040518060400160405280600681526020017f437279696e670000000000000000000000000000000000000000000000000000815250815250600a906020620007e592919062001d54565b50604051806103c001604052806040518060400160405280600981526020017f4a656c6c7966697368000000000000000000000000000000000000000000000081525081526020016040518060400160405280600681526020017f4d756666696e000000000000000000000000000000000000000000000000000081525081526020016040518060400160405280600781526020017f436865646461720000000000000000000000000000000000000000000000000081525081526020016040518060400160405280600681526020017f416c70616361000000000000000000000000000000000000000000000000000081525081526020016040518060400160405280600881526020017f43616e6e6162697300000000000000000000000000000000000000000000000081525081526020016040518060400160405280600881526020017f4d61636b6572656c00000000000000000000000000000000000000000000000081525081526020016040518060400160405280600881526020017f5370616e6b696e6700000000000000000000000000000000000000000000000081525081526020016040518060400160405280600781526020017f4d616e617465650000000000000000000000000000000000000000000000000081525081526020016040518060400160405280600681526020017f5a6f6d626965000000000000000000000000000000000000000000000000000081525081526020016040518060400160405280600781526020017f4f7374726963680000000000000000000000000000000000000000000000000081525081526020016040518060400160405280600a81526020017f466c7567656c686f726e0000000000000000000000000000000000000000000081525081526020016040518060400160405280600781526020017f546f726e61646f0000000000000000000000000000000000000000000000000081525081526020016040518060400160405280600481526020017f596f596f0000000000000000000000000000000000000000000000000000000081525081526020016040518060400160405280600881526020017f41726163686e696400000000000000000000000000000000000000000000000081525081526020016040518060400160405280600881526020017f4c6f6c6c69706f7000000000000000000000000000000000000000000000000081525081526020016040518060400160405280600781526020017f4469616d6f6e640000000000000000000000000000000000000000000000000081525081526020016040518060400160405280600481526020017f527562790000000000000000000000000000000000000000000000000000000081525081526020016040518060400160405280600781526020017f456d6572616c640000000000000000000000000000000000000000000000000081525081526020016040518060400160405280600881526020017f536170706869726500000000000000000000000000000000000000000000000081525081526020016040518060400160405280600881526020017f416d65746879737400000000000000000000000000000000000000000000000081525081526020016040518060400160405280600581526020017f506561726c00000000000000000000000000000000000000000000000000000081525081526020016040518060400160405280600381526020017f4f616b000000000000000000000000000000000000000000000000000000000081525081526020016040518060400160405280600881526020017f4d61686f67616e7900000000000000000000000000000000000000000000000081525081526020016040518060400160405280600581526020017f4d61706c6500000000000000000000000000000000000000000000000000000081525081526020016040518060400160405280600581526020017f436564617200000000000000000000000000000000000000000000000000000081525081526020016040518060400160405280600881526020017f416c756d696e756d00000000000000000000000000000000000000000000000081525081526020016040518060400160405280600681526020017f436f70706572000000000000000000000000000000000000000000000000000081525081526020016040518060400160405280600681526020017f4d6172626c65000000000000000000000000000000000000000000000000000081525081526020016040518060400160405280600881526020017f546974616e69756d00000000000000000000000000000000000000000000000081525081526020016040518060400160405280600881526020017f506c6174696e756d000000000000000000000000000000000000000000000000815250815250600b90601e62000eec92919062001dbb565b50604051806104c001604052806040518060400160405280600981526020017f576869737065726572000000000000000000000000000000000000000000000081525081526020016040518060400160405280600781526020017f536176696f75720000000000000000000000000000000000000000000000000081525081526020016040518060400160405280600781526020017f506c756d6265720000000000000000000000000000000000000000000000000081525081526020016040518060400160405280600881526020017f5772616e676c657200000000000000000000000000000000000000000000000081525081526020016040518060400160405280600881526020017f5365726765616e7400000000000000000000000000000000000000000000000081525081526020016040518060400160405280600581526020017f526964657200000000000000000000000000000000000000000000000000000081525081526020016040518060400160405280600781526020017f4d616368696e650000000000000000000000000000000000000000000000000081525081526020016040518060400160405280600781526020017f476f64646573730000000000000000000000000000000000000000000000000081525081526020016040518060400160405280600781526020017f486f73746167650000000000000000000000000000000000000000000000000081525081526020016040518060400160405280600981526020017f566f6c756e74656572000000000000000000000000000000000000000000000081525081526020016040518060400160405280600981526020017f446574656374697665000000000000000000000000000000000000000000000081525081526020016040518060400160405280600881526020017f52656c617469766500000000000000000000000000000000000000000000000081525081526020016040518060400160405280600481526020017f5477696e0000000000000000000000000000000000000000000000000000000081525081526020016040518060400160405280600781526020017f547269706c65740000000000000000000000000000000000000000000000000081525081526020016040518060400160405280600681526020017f436f7573696e000000000000000000000000000000000000000000000000000081525081526020016040518060400160405280600681526020017f476f626c696e000000000000000000000000000000000000000000000000000081525081526020016040518060400160405280600681526020017f46696e616c65000000000000000000000000000000000000000000000000000081525081526020016040518060400160405280600981526020017f446566656e64616e74000000000000000000000000000000000000000000000081525081526020016040518060400160405280600a81526020017f50726f73656375746f720000000000000000000000000000000000000000000081525081526020016040518060400160405280600881526020017f4578656375746f7200000000000000000000000000000000000000000000000081525081526020016040518060400160405280600381526020017f4f7263000000000000000000000000000000000000000000000000000000000081525081526020016040518060400160405280600781526020017f44656e746973740000000000000000000000000000000000000000000000000081525081526020016040518060400160405280600781526020017f466967687465720000000000000000000000000000000000000000000000000081525081526020016040518060400160405280600681526020017f52616e676572000000000000000000000000000000000000000000000000000081525081526020016040518060400160405280600981526020017f42617262617269616e000000000000000000000000000000000000000000000081525081526020016040518060400160405280600681526020017f57697a617264000000000000000000000000000000000000000000000000000081525081526020016040518060400160405280600981526020017f536f72636572657373000000000000000000000000000000000000000000000081525081526020016040518060400160405280600b81526020017f4e6563726f6d616e63657200000000000000000000000000000000000000000081525081526020016040518060400160405280600781526020017f426c616e6b65740000000000000000000000000000000000000000000000000081525081526020016040518060400160405280600681526020017f486f6f646965000000000000000000000000000000000000000000000000000081525081526020016040518060400160405280600681526020017f536164646c65000000000000000000000000000000000000000000000000000081525081526020016040518060400160405280600981526020017f46616e6e797061636b000000000000000000000000000000000000000000000081525081526020016040518060400160405280600881526020017f5377696d7375697400000000000000000000000000000000000000000000000081525081526020016040518060400160405280600581526020017f57656e636800000000000000000000000000000000000000000000000000000081525081526020016040518060400160405280600781526020017f4d65726d6169640000000000000000000000000000000000000000000000000081525081526020016040518060400160405280600981526020017f546f616473746f6f6c000000000000000000000000000000000000000000000081525081526020016040518060400160405280600781526020017f48616d6d6f636b0000000000000000000000000000000000000000000000000081525081526020016040518060400160405280600681526020017f536176616e740000000000000000000000000000000000000000000000000000815250815250600c906026620017cb92919062001e22565b506040518061024001604052806040518060400160405280600a81526020017f6461726b6f72636869640000000000000000000000000000000000000000000081525081526020016040518060400160405280600a81526020017f636861727472657573650000000000000000000000000000000000000000000081525081526020016040518060400160405280600881526020017f6465657070696e6b00000000000000000000000000000000000000000000000081525081526020016040518060400160405280600881526020017f636f726e73696c6b00000000000000000000000000000000000000000000000081525081526020016040518060400160405280600581526020017f636f72616c00000000000000000000000000000000000000000000000000000081525081526020016040518060400160405280600d81526020017f6461726b676f6c64656e726f640000000000000000000000000000000000000081525081526020016040518060400160405280600c81526020017f6c656d6f6e63686966666f6e000000000000000000000000000000000000000081525081526020016040518060400160405280600d81526020017f6c6176656e646572626c7573680000000000000000000000000000000000000081525081526020016040518060400160405280600881526020017f686f6e657964657700000000000000000000000000000000000000000000000081525081526020016040518060400160405280600b81526020017f79656c6c6f77677265656e00000000000000000000000000000000000000000081525081526020016040518060400160405280600981526020017f74757271756f697365000000000000000000000000000000000000000000000081525081526020016040518060400160405280600681526020017f746f6d61746f000000000000000000000000000000000000000000000000000081525081526020016040518060400160405280600981526020017f6f72616e6765726564000000000000000000000000000000000000000000000081525081526020016040518060400160405280600981526020017f6f6c69766564726162000000000000000000000000000000000000000000000081525081526020016040518060400160405280600681526020017f6f7263686964000000000000000000000000000000000000000000000000000081525081526020016040518060400160405280600981526020017f70616c65677265656e000000000000000000000000000000000000000000000081525081526020016040518060400160405280600781526020017f6d6167656e74610000000000000000000000000000000000000000000000000081525081526020016040518060400160405280600481526020017f6c696d6500000000000000000000000000000000000000000000000000000000815250815250600d90601262001c0e92919062001e89565b5034801562001c1c57600080fd5b506040518060400160405280600d81526020017f4e4654536f756c732054657374000000000000000000000000000000000000008152506040518060400160405280600681526020017f5351554152450000000000000000000000000000000000000000000000000000815250816000908051906020019062001ca192919062001cc3565b50806001908051906020019062001cba92919062001cc3565b50505062001fe2565b82805462001cd19062001fac565b90600052602060002090601f01602090048101928262001cf5576000855562001d41565b82601f1062001d1057805160ff191683800117855562001d41565b8280016001018555821562001d41579182015b8281111562001d4057825182559160200191906001019062001d23565b5b50905062001d50919062001ef0565b5090565b82805482825590600052602060002090810192821562001da8579160200282015b8281111562001da757825182908051906020019062001d9692919062001cc3565b509160200191906001019062001d75565b5b50905062001db7919062001f0f565b5090565b82805482825590600052602060002090810192821562001e0f579160200282015b8281111562001e0e57825182908051906020019062001dfd92919062001cc3565b509160200191906001019062001ddc565b5b50905062001e1e919062001f0f565b5090565b82805482825590600052602060002090810192821562001e76579160200282015b8281111562001e7557825182908051906020019062001e6492919062001cc3565b509160200191906001019062001e43565b5b50905062001e85919062001f0f565b5090565b82805482825590600052602060002090810192821562001edd579160200282015b8281111562001edc57825182908051906020019062001ecb92919062001cc3565b509160200191906001019062001eaa565b5b50905062001eec919062001f0f565b5090565b5b8082111562001f0b57600081600090555060010162001ef1565b5090565b5b8082111562001f33576000818162001f29919062001f37565b5060010162001f10565b5090565b50805462001f459062001fac565b6000825580601f1062001f59575062001f7a565b601f01602090049060005260206000209081019062001f79919062001ef0565b5b50565b7f4e487b7100000000000000000000000000000000000000000000000000000000600052602260045260246000fd5b6000600282049050600182168062001fc557607f821691505b6020821081141562001fdc5762001fdb62001f7d565b5b50919050565b613a7d8062001ff26000396000f3fe608060405234801561001057600080fd5b50600436106101165760003560e01c806370a08231116100a2578063b88d4fde11610071578063b88d4fde14610317578063c575757a14610333578063c87b56dd14610363578063e4d098e114610393578063e985e9c51461039d57610116565b806370a082311461027d57806395d89b41146102ad578063a22cb465146102cb578063b187301f146102e757610116565b806323b872dd116100e957806323b872dd146101b55780632de38d68146101d157806342842e0e14610201578063514dc8c61461021d5780636352211e1461024d57610116565b806301ffc9a71461011b57806306fdde031461014b578063081812fc14610169578063095ea7b314610199575b600080fd5b610135600480360381019061013091906122f2565b6103cd565b604051610142919061233a565b60405180910390f35b6101536104af565b60405161016091906123ee565b60405180910390f35b610183600480360381019061017e9190612446565b610541565b60405161019091906124b4565b60405180910390f35b6101b360048036038101906101ae91906124fb565b6105c6565b005b6101cf60048036038101906101ca919061253b565b6106de565b005b6101eb60048036038101906101e69190612446565b61073e565b6040516101f891906123ee565b60405180910390f35b61021b6004803603810190610216919061253b565b610836565b005b61023760048036038101906102329190612446565b610856565b60405161024491906123ee565b60405180910390f35b61026760048036038101906102629190612446565b61093d565b60405161027491906124b4565b60405180910390f35b6102976004803603810190610292919061258e565b6109ef565b6040516102a491906125ca565b60405180910390f35b6102b5610aa7565b6040516102c291906123ee565b60405180910390f35b6102e560048036038101906102e09190612611565b610b39565b005b61030160048036038101906102fc9190612446565b610cba565b60405161030e91906123ee565b60405180910390f35b610331600480360381019061032c9190612786565b610db2565b005b61034d60048036038101906103489190612446565b610e14565b60405161035a91906123ee565b60405180910390f35b61037d60048036038101906103789190612446565b610f0c565b60405161038a91906123ee565b60405180910390f35b61039b61105e565b005b6103b760048036038101906103b29190612809565b611258565b6040516103c4919061233a565b60405180910390f35b60007f80ac58cd000000000000000000000000000000000000000000000000000000007bffffffffffffffffffffffffffffffffffffffffffffffffffffffff1916827bffffffffffffffffffffffffffffffffffffffffffffffffffffffff1916148061049857507f5b5e139f000000000000000000000000000000000000000000000000000000007bffffffffffffffffffffffffffffffffffffffffffffffffffffffff1916827bffffffffffffffffffffffffffffffffffffffffffffffffffffffff1916145b806104a857506104a7826112ec565b5b9050919050565b6060600080546104be90612878565b80601f01602080910402602001604051908101604052809291908181526020018280546104ea90612878565b80156105375780601f1061050c57610100808354040283529160200191610537565b820191906000526020600020905b81548152906001019060200180831161051a57829003601f168201915b5050505050905090565b600061054c82611356565b61058b576040517f08c379a00000000000000000000000000000000000000000000000000000000081526004016105829061291c565b60405180910390fd5b6004600083815260200190815260200160002060009054906101000a900473ffffffffffffffffffffffffffffffffffffffff169050919050565b60006105d18261093d565b90508073ffffffffffffffffffffffffffffffffffffffff168373ffffffffffffffffffffffffffffffffffffffff161415610642576040517f08c379a0000000000000000000000000000000000000000000000000000000008152600401610639906129ae565b60405180910390fd5b8073ffffffffffffffffffffffffffffffffffffffff166106616113c2565b73ffffffffffffffffffffffffffffffffffffffff161480610690575061068f8161068a6113c2565b611258565b5b6106cf576040517f08c379a00000000000000000000000000000000000000000000000000000000081526004016106c690612a40565b60405180910390fd5b6106d983836113ca565b505050565b6106ef6106e96113c2565b82611483565b61072e576040517f08c379a000000000000000000000000000000000000000000000000000000000815260040161072590612ad2565b60405180910390fd5b610739838383611561565b505050565b6060600061077261074e846117bd565b60405160200161075e9190612b7a565b60405160208183030381529060405261191e565b9050600a80549050816107859190612bcb565b9050600a818154811061079b5761079a612bfc565b5b9060005260206000200180546107b090612878565b80601f01602080910402602001604051908101604052809291908181526020018280546107dc90612878565b80156108295780601f106107fe57610100808354040283529160200191610829565b820191906000526020600020905b81548152906001019060200180831161080c57829003601f168201915b5050505050915050919050565b61085183838360405180602001604052806000815250610db2565b505050565b606060006001600d8054905061086c9190612c5a565b831161087a5782905061088e565b600d805490508361088b9190612bcb565b90505b600d81815481106108a2576108a1612bfc565b5b9060005260206000200180546108b790612878565b80601f01602080910402602001604051908101604052809291908181526020018280546108e390612878565b80156109305780601f1061090557610100808354040283529160200191610930565b820191906000526020600020905b81548152906001019060200180831161091357829003601f168201915b5050505050915050919050565b6000806002600084815260200190815260200160002060009054906101000a900473ffffffffffffffffffffffffffffffffffffffff169050600073ffffffffffffffffffffffffffffffffffffffff168173ffffffffffffffffffffffffffffffffffffffff1614156109e6576040517f08c379a00000000000000000000000000000000000000000000000000000000081526004016109dd90612d00565b60405180910390fd5b80915050919050565b60008073ffffffffffffffffffffffffffffffffffffffff168273ffffffffffffffffffffffffffffffffffffffff161415610a60576040517f08c379a0000000000000000000000000000000000000000000000000000000008152600401610a5790612d92565b60405180910390fd5b600360008373ffffffffffffffffffffffffffffffffffffffff1673ffffffffffffffffffffffffffffffffffffffff168152602001908152602001600020549050919050565b606060018054610ab690612878565b80601f0160208091040260200160405190810160405280929190818152602001828054610ae290612878565b8015610b2f5780601f10610b0457610100808354040283529160200191610b2f565b820191906000526020600020905b815481529060010190602001808311610b1257829003601f168201915b5050505050905090565b610b416113c2565b73ffffffffffffffffffffffffffffffffffffffff168273ffffffffffffffffffffffffffffffffffffffff161415610baf576040517f08c379a0000000000000000000000000000000000000000000000000000000008152600401610ba690612dfe565b60405180910390fd5b8060056000610bbc6113c2565b73ffffffffffffffffffffffffffffffffffffffff1673ffffffffffffffffffffffffffffffffffffffff16815260200190815260200160002060008473ffffffffffffffffffffffffffffffffffffffff1673ffffffffffffffffffffffffffffffffffffffff16815260200190815260200160002060006101000a81548160ff0219169083151502179055508173ffffffffffffffffffffffffffffffffffffffff16610c696113c2565b73ffffffffffffffffffffffffffffffffffffffff167f17307eab39ab6107e8899845ad3d59bd9653f200f220920489ca2b5937696c3183604051610cae919061233a565b60405180910390a35050565b60606000610cee610cca846117bd565b604051602001610cda9190612e6a565b60405160208183030381529060405261191e565b9050600b8054905081610d019190612bcb565b9050600b8181548110610d1757610d16612bfc565b5b906000526020600020018054610d2c90612878565b80601f0160208091040260200160405190810160405280929190818152602001828054610d5890612878565b8015610da55780601f10610d7a57610100808354040283529160200191610da5565b820191906000526020600020905b815481529060010190602001808311610d8857829003601f168201915b5050505050915050919050565b610dc3610dbd6113c2565b83611483565b610e02576040517f08c379a0000000000000000000000000000000000000000000000000000000008152600401610df990612ad2565b60405180910390fd5b610e0e84848484611951565b50505050565b60606000610e48610e24846117bd565b604051602001610e349190612ed8565b60405160208183030381529060405261191e565b9050600c8054905081610e5b9190612bcb565b9050600c8181548110610e7157610e70612bfc565b5b906000526020600020018054610e8690612878565b80601f0160208091040260200160405190810160405280929190818152602001828054610eb290612878565b8015610eff5780601f10610ed457610100808354040283529160200191610eff565b820191906000526020600020905b815481529060010190602001808311610ee257829003601f168201915b5050505050915050919050565b6060610f1782611356565b610f56576040517f08c379a0000000000000000000000000000000000000000000000000000000008152600401610f4d90612f6c565b60405180910390fd5b6000600660008481526020019081526020016000208054610f7690612878565b80601f0160208091040260200160405190810160405280929190818152602001828054610fa290612878565b8015610fef5780601f10610fc457610100808354040283529160200191610fef565b820191906000526020600020905b815481529060010190602001808311610fd257829003601f168201915b5050505050905060006110006119ad565b9050600081511415611016578192505050611059565b60008251111561104b578082604051602001611033929190612f8c565b60405160208183030381529060405292505050611059565b611054846119c4565b925050505b919050565b600061106a6007611a6b565b905060006110778261073e565b9050600061108483610cba565b9050600061109184610e14565b905060008383836040516020016110aa93929190612fb0565b604051602081830303815290604052905060006110c686610856565b905060006008826009856040516020016110e394939291906130c1565b604051602081830303815290604052905060006111288461110384611a79565b604051602001611114929190613260565b604051602081830303815290604052611a79565b905060008160405160200161113d91906132f1565b604051602081830303815290604052905061118c6040518060400160405280601581526020017f0a2d2d2d2d2d2d2d2d2d2d2d2d2d2d2d2d2d2d2d2d0000000000000000000000815250611c11565b61119581611c11565b6111d36040518060400160405280601581526020017f2d2d2d2d2d2d2d2d2d2d2d2d2d2d2d2d2d2d2d2d0a0000000000000000000000815250611c11565b6111dd338a611caa565b6111e78982611cc8565b6111f16007611d3c565b7f8d63d5127af65dc1deee6aa1f9b1a0795a5fa0a2422793aeffe236dcd208cb48338a604051611222929190613313565b60405180910390a161124d6040518060600160405280602581526020016139e3602591398a33611d52565b505050505050505050565b6000600560008473ffffffffffffffffffffffffffffffffffffffff1673ffffffffffffffffffffffffffffffffffffffff16815260200190815260200160002060008373ffffffffffffffffffffffffffffffffffffffff1673ffffffffffffffffffffffffffffffffffffffff16815260200190815260200160002060009054906101000a900460ff16905092915050565b60007f01ffc9a7000000000000000000000000000000000000000000000000000000007bffffffffffffffffffffffffffffffffffffffffffffffffffffffff1916827bffffffffffffffffffffffffffffffffffffffffffffffffffffffff1916149050919050565b60008073ffffffffffffffffffffffffffffffffffffffff166002600084815260200190815260200160002060009054906101000a900473ffffffffffffffffffffffffffffffffffffffff1673ffffffffffffffffffffffffffffffffffffffff1614159050919050565b600033905090565b816004600083815260200190815260200160002060006101000a81548173ffffffffffffffffffffffffffffffffffffffff021916908373ffffffffffffffffffffffffffffffffffffffff160217905550808273ffffffffffffffffffffffffffffffffffffffff1661143d8361093d565b73ffffffffffffffffffffffffffffffffffffffff167f8c5be1e5ebec7d5bd14f71427d1e84f3dd0314c0f7b2291e5b200ac8c7c3b92560405160405180910390a45050565b600061148e82611356565b6114cd576040517f08c379a00000000000000000000000000000000000000000000000000000000081526004016114c4906133ae565b60405180910390fd5b60006114d88361093d565b90508073ffffffffffffffffffffffffffffffffffffffff168473ffffffffffffffffffffffffffffffffffffffff16148061154757508373ffffffffffffffffffffffffffffffffffffffff1661152f84610541565b73ffffffffffffffffffffffffffffffffffffffff16145b8061155857506115578185611258565b5b91505092915050565b8273ffffffffffffffffffffffffffffffffffffffff166115818261093d565b73ffffffffffffffffffffffffffffffffffffffff16146115d7576040517f08c379a00000000000000000000000000000000000000000000000000000000081526004016115ce90613440565b60405180910390fd5b600073ffffffffffffffffffffffffffffffffffffffff168273ffffffffffffffffffffffffffffffffffffffff161415611647576040517f08c379a000000000000000000000000000000000000000000000000000000000815260040161163e906134d2565b60405180910390fd5b611652838383611df1565b61165d6000826113ca565b6001600360008573ffffffffffffffffffffffffffffffffffffffff1673ffffffffffffffffffffffffffffffffffffffff16815260200190815260200160002060008282546116ad9190612c5a565b925050819055506001600360008473ffffffffffffffffffffffffffffffffffffffff1673ffffffffffffffffffffffffffffffffffffffff168152602001908152602001600020600082825461170491906134f2565b92505081905550816002600083815260200190815260200160002060006101000a81548173ffffffffffffffffffffffffffffffffffffffff021916908373ffffffffffffffffffffffffffffffffffffffff160217905550808273ffffffffffffffffffffffffffffffffffffffff168473ffffffffffffffffffffffffffffffffffffffff167fddf252ad1be2c89b69c2b068fc378daa952ba7f163c4a11628f55a4df523b3ef60405160405180910390a4505050565b60606000821415611805576040518060400160405280600181526020017f30000000000000000000000000000000000000000000000000000000000000008152509050611919565b600082905060005b6000821461183757808061182090613548565b915050600a826118309190613591565b915061180d565b60008167ffffffffffffffff8111156118535761185261265b565b5b6040519080825280601f01601f1916602001820160405280156118855781602001600182028036833780820191505090505b5090505b600085146119125760018261189e9190612c5a565b9150600a856118ad9190612bcb565b60306118b991906134f2565b60f81b8183815181106118cf576118ce612bfc565b5b60200101907effffffffffffffffffffffffffffffffffffffffffffffffffffffffffffff1916908160001a905350600a8561190b9190613591565b9450611889565b8093505050505b919050565b60008160405160200161193191906135c2565b6040516020818303038152906040528051906020012060001c9050919050565b61195c848484611561565b61196884848484611df6565b6119a7576040517f08c379a000000000000000000000000000000000000000000000000000000000815260040161199e9061364b565b60405180910390fd5b50505050565b606060405180602001604052806000815250905090565b60606119cf82611356565b611a0e576040517f08c379a0000000000000000000000000000000000000000000000000000000008152600401611a05906136dd565b60405180910390fd5b6000611a186119ad565b90506000815111611a385760405180602001604052806000815250611a63565b80611a42846117bd565b604051602001611a53929190612f8c565b6040516020818303038152906040525b915050919050565b600081600001549050919050565b60606000825190506000811415611aa25760405180602001604052806000815250915050611c0c565b60006003600283611ab391906134f2565b611abd9190613591565b6004611ac991906136fd565b90506000602082611ada91906134f2565b67ffffffffffffffff811115611af357611af261265b565b5b6040519080825280601f01601f191660200182016040528015611b255781602001600182028036833780820191505090505b5090506000604051806060016040528060408152602001613a08604091399050600181016020830160005b86811015611bc95760038101905062ffffff818a015116603f8160121c168401518060081b905060ff603f83600c1c1686015116810190508060081b905060ff603f8360061c1686015116810190508060081b905060ff603f831686015116810190508060e01b90508084526004840193505050611b50565b506003860660018114611be35760028114611bf357611bfe565b613d3d60f01b6002830352611bfe565b603d60f81b60018303525b508484525050819450505050505b919050565b611ca781604051602401611c2591906123ee565b6040516020818303038152906040527f41304fac000000000000000000000000000000000000000000000000000000007bffffffffffffffffffffffffffffffffffffffffffffffffffffffff19166020820180517bffffffffffffffffffffffffffffffffffffffffffffffffffffffff8381831617835250505050611f7e565b50565b611cc4828260405180602001604052806000815250611fa7565b5050565b611cd182611356565b611d10576040517f08c379a0000000000000000000000000000000000000000000000000000000008152600401611d07906137c9565b60405180910390fd5b80600660008481526020019081526020016000209080519060200190611d379291906121e3565b505050565b6001816000016000828254019250508190555050565b611dec838383604051602401611d6a939291906137e9565b6040516020818303038152906040527fe3849f79000000000000000000000000000000000000000000000000000000007bffffffffffffffffffffffffffffffffffffffffffffffffffffffff19166020820180517bffffffffffffffffffffffffffffffffffffffffffffffffffffffff8381831617835250505050611f7e565b505050565b505050565b6000611e178473ffffffffffffffffffffffffffffffffffffffff16612002565b15611f71578373ffffffffffffffffffffffffffffffffffffffff1663150b7a02611e406113c2565b8786866040518563ffffffff1660e01b8152600401611e62949392919061387c565b6020604051808303816000875af1925050508015611e9e57506040513d601f19601f82011682018060405250810190611e9b91906138dd565b60015b611f21573d8060008114611ece576040519150601f19603f3d011682016040523d82523d6000602084013e611ed3565b606091505b50600081511415611f19576040517f08c379a0000000000000000000000000000000000000000000000000000000008152600401611f109061364b565b60405180910390fd5b805181602001fd5b63150b7a0260e01b7bffffffffffffffffffffffffffffffffffffffffffffffffffffffff1916817bffffffffffffffffffffffffffffffffffffffffffffffffffffffff191614915050611f76565b600190505b949350505050565b60008151905060006a636f6e736f6c652e6c6f679050602083016000808483855afa5050505050565b611fb18383612015565b611fbe6000848484611df6565b611ffd576040517f08c379a0000000000000000000000000000000000000000000000000000000008152600401611ff49061364b565b60405180910390fd5b505050565b600080823b905060008111915050919050565b600073ffffffffffffffffffffffffffffffffffffffff168273ffffffffffffffffffffffffffffffffffffffff161415612085576040517f08c379a000000000000000000000000000000000000000000000000000000000815260040161207c90613956565b60405180910390fd5b61208e81611356565b156120ce576040517f08c379a00000000000000000000000000000000000000000000000000000000081526004016120c5906139c2565b60405180910390fd5b6120da60008383611df1565b6001600360008473ffffffffffffffffffffffffffffffffffffffff1673ffffffffffffffffffffffffffffffffffffffff168152602001908152602001600020600082825461212a91906134f2565b92505081905550816002600083815260200190815260200160002060006101000a81548173ffffffffffffffffffffffffffffffffffffffff021916908373ffffffffffffffffffffffffffffffffffffffff160217905550808273ffffffffffffffffffffffffffffffffffffffff16600073ffffffffffffffffffffffffffffffffffffffff167fddf252ad1be2c89b69c2b068fc378daa952ba7f163c4a11628f55a4df523b3ef60405160405180910390a45050565b8280546121ef90612878565b90600052602060002090601f0160209004810192826122115760008555612258565b82601f1061222a57805160ff1916838001178555612258565b82800160010185558215612258579182015b8281111561225757825182559160200191906001019061223c565b5b5090506122659190612269565b5090565b5b8082111561228257600081600090555060010161226a565b5090565b6000604051905090565b600080fd5b600080fd5b60007fffffffff0000000000000000000000000000000000000000000000000000000082169050919050565b6122cf8161229a565b81146122da57600080fd5b50565b6000813590506122ec816122c6565b92915050565b60006020828403121561230857612307612290565b5b6000612316848285016122dd565b91505092915050565b60008115159050919050565b6123348161231f565b82525050565b600060208201905061234f600083018461232b565b92915050565b600081519050919050565b600082825260208201905092915050565b60005b8381101561238f578082015181840152602081019050612374565b8381111561239e576000848401525b50505050565b6000601f19601f8301169050919050565b60006123c082612355565b6123ca8185612360565b93506123da818560208601612371565b6123e3816123a4565b840191505092915050565b6000602082019050818103600083015261240881846123b5565b905092915050565b6000819050919050565b61242381612410565b811461242e57600080fd5b50565b6000813590506124408161241a565b92915050565b60006020828403121561245c5761245b612290565b5b600061246a84828501612431565b91505092915050565b600073ffffffffffffffffffffffffffffffffffffffff82169050919050565b600061249e82612473565b9050919050565b6124ae81612493565b82525050565b60006020820190506124c960008301846124a5565b92915050565b6124d881612493565b81146124e357600080fd5b50565b6000813590506124f5816124cf565b92915050565b6000806040838503121561251257612511612290565b5b6000612520858286016124e6565b925050602061253185828601612431565b9150509250929050565b60008060006060848603121561255457612553612290565b5b6000612562868287016124e6565b9350506020612573868287016124e6565b925050604061258486828701612431565b9150509250925092565b6000602082840312156125a4576125a3612290565b5b60006125b2848285016124e6565b91505092915050565b6125c481612410565b82525050565b60006020820190506125df60008301846125bb565b92915050565b6125ee8161231f565b81146125f957600080fd5b50565b60008135905061260b816125e5565b92915050565b6000806040838503121561262857612627612290565b5b6000612636858286016124e6565b9250506020612647858286016125fc565b9150509250929050565b600080fd5b600080fd5b7f4e487b7100000000000000000000000000000000000000000000000000000000600052604160045260246000fd5b612693826123a4565b810181811067ffffffffffffffff821117156126b2576126b161265b565b5b80604052505050565b60006126c5612286565b90506126d1828261268a565b919050565b600067ffffffffffffffff8211156126f1576126f061265b565b5b6126fa826123a4565b9050602081019050919050565b82818337600083830152505050565b6000612729612724846126d6565b6126bb565b90508281526020810184848401111561274557612744612656565b5b612750848285612707565b509392505050565b600082601f83011261276d5761276c612651565b5b813561277d848260208601612716565b91505092915050565b600080600080608085870312156127a05761279f612290565b5b60006127ae878288016124e6565b94505060206127bf878288016124e6565b93505060406127d087828801612431565b925050606085013567ffffffffffffffff8111156127f1576127f0612295565b5b6127fd87828801612758565b91505092959194509250565b600080604083850312156128205761281f612290565b5b600061282e858286016124e6565b925050602061283f858286016124e6565b9150509250929050565b7f4e487b7100000000000000000000000000000000000000000000000000000000600052602260045260246000fd5b6000600282049050600182168061289057607f821691505b602082108114156128a4576128a3612849565b5b50919050565b7f4552433732313a20617070726f76656420717565727920666f72206e6f6e657860008201527f697374656e7420746f6b656e0000000000000000000000000000000000000000602082015250565b6000612906602c83612360565b9150612911826128aa565b604082019050919050565b60006020820190508181036000830152612935816128f9565b9050919050565b7f4552433732313a20617070726f76616c20746f2063757272656e74206f776e6560008201527f7200000000000000000000000000000000000000000000000000000000000000602082015250565b6000612998602183612360565b91506129a38261293c565b604082019050919050565b600060208201905081810360008301526129c78161298b565b9050919050565b7f4552433732313a20617070726f76652063616c6c6572206973206e6f74206f7760008201527f6e6572206e6f7220617070726f76656420666f7220616c6c0000000000000000602082015250565b6000612a2a603883612360565b9150612a35826129ce565b604082019050919050565b60006020820190508181036000830152612a5981612a1d565b9050919050565b7f4552433732313a207472616e736665722063616c6c6572206973206e6f74206f60008201527f776e6572206e6f7220617070726f766564000000000000000000000000000000602082015250565b6000612abc603183612360565b9150612ac782612a60565b604082019050919050565b60006020820190508181036000830152612aeb81612aaf565b9050919050565b600081905092915050565b7f46495253545f574f524400000000000000000000000000000000000000000000600082015250565b6000612b33600a83612af2565b9150612b3e82612afd565b600a82019050919050565b6000612b5482612355565b612b5e8185612af2565b9350612b6e818560208601612371565b80840191505092915050565b6000612b8582612b26565b9150612b918284612b49565b915081905092915050565b7f4e487b7100000000000000000000000000000000000000000000000000000000600052601260045260246000fd5b6000612bd682612410565b9150612be183612410565b925082612bf157612bf0612b9c565b5b828206905092915050565b7f4e487b7100000000000000000000000000000000000000000000000000000000600052603260045260246000fd5b7f4e487b7100000000000000000000000000000000000000000000000000000000600052601160045260246000fd5b6000612c6582612410565b9150612c7083612410565b925082821015612c8357612c82612c2b565b5b828203905092915050565b7f4552433732313a206f776e657220717565727920666f72206e6f6e657869737460008201527f656e7420746f6b656e0000000000000000000000000000000000000000000000602082015250565b6000612cea602983612360565b9150612cf582612c8e565b604082019050919050565b60006020820190508181036000830152612d1981612cdd565b9050919050565b7f4552433732313a2062616c616e636520717565727920666f7220746865207a6560008201527f726f206164647265737300000000000000000000000000000000000000000000602082015250565b6000612d7c602a83612360565b9150612d8782612d20565b604082019050919050565b60006020820190508181036000830152612dab81612d6f565b9050919050565b7f4552433732313a20617070726f766520746f2063616c6c657200000000000000600082015250565b6000612de8601983612360565b9150612df382612db2565b602082019050919050565b60006020820190508181036000830152612e1781612ddb565b9050919050565b7f5345434f4e445f574f5244000000000000000000000000000000000000000000600082015250565b6000612e54600b83612af2565b9150612e5f82612e1e565b600b82019050919050565b6000612e7582612e47565b9150612e818284612b49565b915081905092915050565b7f54484952445f574f524400000000000000000000000000000000000000000000600082015250565b6000612ec2600a83612af2565b9150612ecd82612e8c565b600a82019050919050565b6000612ee382612eb5565b9150612eef8284612b49565b915081905092915050565b7f45524337323155524953746f726167653a2055524920717565727920666f722060008201527f6e6f6e6578697374656e7420746f6b656e000000000000000000000000000000602082015250565b6000612f56603183612360565b9150612f6182612efa565b604082019050919050565b60006020820190508181036000830152612f8581612f49565b9050919050565b6000612f988285612b49565b9150612fa48284612b49565b91508190509392505050565b6000612fbc8286612b49565b9150612fc88285612b49565b9150612fd48284612b49565b9150819050949350505050565b60008190508160005260206000209050919050565b6000815461300381612878565b61300d8186612af2565b9450600182166000811461302857600181146130395761306c565b60ff1983168652818601935061306c565b61304285612fe1565b60005b8381101561306457815481890152600182019150602081019050613045565b838801955050505b50505092915050565b7f3c2f746578743e3c2f7376673e00000000000000000000000000000000000000600082015250565b60006130ab600d83612af2565b91506130b682613075565b600d82019050919050565b60006130cd8287612ff6565b91506130d98286612b49565b91506130e58285612ff6565b91506130f18284612b49565b91506130fc8261309e565b915081905095945050505050565b7f7b226e616d65223a202200000000000000000000000000000000000000000000600082015250565b6000613140600a83612af2565b915061314b8261310a565b600a82019050919050565b7f222c20226465736372697074696f6e223a20224120636f6c6c656374696f6e2060008201527f6f662067656e6572617469766520776f726b732c2074657374696e6720666f7260208201527f204e4654536f756c732050726f6a6563742e222c2022696d616765223a20226460408201527f6174613a696d6167652f7376672b786d6c3b6261736536342c00000000000000606082015250565b60006131fe607983612af2565b915061320982613156565b607982019050919050565b7f227d000000000000000000000000000000000000000000000000000000000000600082015250565b600061324a600283612af2565b915061325582613214565b600282019050919050565b600061326b82613133565b91506132778285612b49565b9150613282826131f1565b915061328e8284612b49565b91506132998261323d565b91508190509392505050565b7f646174613a6170706c69636174696f6e2f6a736f6e3b6261736536342c000000600082015250565b60006132db601d83612af2565b91506132e6826132a5565b601d82019050919050565b60006132fc826132ce565b91506133088284612b49565b915081905092915050565b600060408201905061332860008301856124a5565b61333560208301846125bb565b9392505050565b7f4552433732313a206f70657261746f7220717565727920666f72206e6f6e657860008201527f697374656e7420746f6b656e0000000000000000000000000000000000000000602082015250565b6000613398602c83612360565b91506133a38261333c565b604082019050919050565b600060208201905081810360008301526133c78161338b565b9050919050565b7f4552433732313a207472616e73666572206f6620746f6b656e2074686174206960008201527f73206e6f74206f776e0000000000000000000000000000000000000000000000602082015250565b600061342a602983612360565b9150613435826133ce565b604082019050919050565b600060208201905081810360008301526134598161341d565b9050919050565b7f4552433732313a207472616e7366657220746f20746865207a65726f2061646460008201527f7265737300000000000000000000000000000000000000000000000000000000602082015250565b60006134bc602483612360565b91506134c782613460565b604082019050919050565b600060208201905081810360008301526134eb816134af565b9050919050565b60006134fd82612410565b915061350883612410565b9250827fffffffffffffffffffffffffffffffffffffffffffffffffffffffffffffffff0382111561353d5761353c612c2b565b5b828201905092915050565b600061355382612410565b91507fffffffffffffffffffffffffffffffffffffffffffffffffffffffffffffffff82141561358657613585612c2b565b5b600182019050919050565b600061359c82612410565b91506135a783612410565b9250826135b7576135b6612b9c565b5b828204905092915050565b60006135ce8284612b49565b915081905092915050565b7f4552433732313a207472616e7366657220746f206e6f6e20455243373231526560008201527f63656976657220696d706c656d656e7465720000000000000000000000000000602082015250565b6000613635603283612360565b9150613640826135d9565b604082019050919050565b6000602082019050818103600083015261366481613628565b9050919050565b7f4552433732314d657461646174613a2055524920717565727920666f72206e6f60008201527f6e6578697374656e7420746f6b656e0000000000000000000000000000000000602082015250565b60006136c7602f83612360565b91506136d28261366b565b604082019050919050565b600060208201905081810360008301526136f6816136ba565b9050919050565b600061370882612410565b915061371383612410565b9250817fffffffffffffffffffffffffffffffffffffffffffffffffffffffffffffffff048311821515161561374c5761374b612c2b565b5b828202905092915050565b7f45524337323155524953746f726167653a2055524920736574206f66206e6f6e60008201527f6578697374656e7420746f6b656e000000000000000000000000000000000000602082015250565b60006137b3602e83612360565b91506137be82613757565b604082019050919050565b600060208201905081810360008301526137e2816137a6565b9050919050565b6000606082019050818103600083015261380381866123b5565b905061381260208301856125bb565b61381f60408301846124a5565b949350505050565b600081519050919050565b600082825260208201905092915050565b600061384e82613827565b6138588185613832565b9350613868818560208601612371565b613871816123a4565b840191505092915050565b600060808201905061389160008301876124a5565b61389e60208301866124a5565b6138ab60408301856125bb565b81810360608301526138bd8184613843565b905095945050505050565b6000815190506138d7816122c6565b92915050565b6000602082840312156138f3576138f2612290565b5b6000613901848285016138c8565b91505092915050565b7f4552433732313a206d696e7420746f20746865207a65726f2061646472657373600082015250565b6000613940602083612360565b915061394b8261390a565b602082019050919050565b6000602082019050818103600083015261396f81613933565b9050919050565b7f4552433732313a20746f6b656e20616c7265616479206d696e74656400000000600082015250565b60006139ac601c83612360565b91506139b782613976565b602082019050919050565b600060208201905081810360008301526139db8161399f565b905091905056fe416e204e465420772f20494420257320686173206265656e206d696e74656420746f2025734142434445464748494a4b4c4d4e4f505152535455565758595a6162636465666768696a6b6c6d6e6f707172737475767778797a303132333435363738392b2fa264697066735822122053da44298dd1b34e7166fb9eca189214d500ecbdb8fe19543f4e281aa3d7067f64736f6c634300080a00333c73766720786d6c6e733d27687474703a2f2f7777772e77332e6f72672f323030302f73766727207072657365727665417370656374526174696f3d27784d696e594d696e206d656574272076696577426f783d273020302033353020333530273e3c7374796c653e2e62617365207b2066696c6c3a2077686974653b20666f6e742d66616d696c793a2073657269663b20666f6e742d73697a653a20323470783b207d3c2f7374796c653e3c726563742077696474683d273130302527206865696768743d2731303025272066696c6c3d2727202f3e3c7465787420783d273530252720793d273530252720636c6173733d27626173652720646f6d696e616e742d626173656c696e653d276d6964646c652720746578742d616e63686f723d276d6964646c65273e",
  "linkReferences": {},
  "deployedLinkReferences": {}
}